{
  "contractName": "Census",
  "abi": [
    {
      "inputs": [],
      "payable": false,
      "stateMutability": "nonpayable",
      "type": "constructor",
      "signature": "constructor"
    },
    {
      "anonymous": false,
      "inputs": [
        {
          "indexed": true,
          "internalType": "address",
          "name": "wallet",
          "type": "address"
        },
        {
          "indexed": false,
          "internalType": "uint256",
          "name": "_householdID",
          "type": "uint256"
        }
      ],
      "name": "ProductCreated",
      "type": "event",
      "signature": "0x982bb66d9aa60573bc0a2066122e1466ecbc4c179a5e7c1c5b589345008ce69a"
    },
    {
      "constant": true,
      "inputs": [
        {
          "internalType": "uint256",
          "name": "",
          "type": "uint256"
        }
      ],
      "name": "hos",
      "outputs": [
        {
          "internalType": "uint256",
          "name": "hid",
          "type": "uint256"
        }
      ],
      "payable": false,
      "stateMutability": "view",
      "type": "function",
      "signature": "0xfc9f7f29"
    },
    {
      "constant": true,
      "inputs": [
        {
          "internalType": "uint256",
          "name": "",
          "type": "uint256"
        }
      ],
      "name": "households",
      "outputs": [
        {
          "internalType": "uint256",
          "name": "hid",
          "type": "uint256"
        },
        {
          "internalType": "bool",
          "name": "Householdadded",
          "type": "bool"
        },
        {
          "internalType": "address",
          "name": "submitter",
          "type": "address"
        }
      ],
      "payable": false,
      "stateMutability": "view",
      "type": "function",
      "signature": "0x45f86fa0"
    },
    {
      "constant": true,
      "inputs": [],
      "name": "lasthouseholdID",
      "outputs": [
        {
          "internalType": "uint256",
          "name": "",
          "type": "uint256"
        }
      ],
      "payable": false,
      "stateMutability": "view",
      "type": "function",
      "signature": "0xc0991a37"
    },
    {
      "constant": true,
      "inputs": [],
      "name": "name",
      "outputs": [
        {
          "internalType": "string",
          "name": "",
          "type": "string"
        }
      ],
      "payable": false,
      "stateMutability": "view",
      "type": "function",
      "signature": "0x06fdde03"
    },
    {
      "constant": true,
      "inputs": [],
      "name": "personCount",
      "outputs": [
        {
          "internalType": "uint256",
          "name": "",
          "type": "uint256"
        }
      ],
      "payable": false,
      "stateMutability": "view",
      "type": "function",
      "signature": "0x78495bf8"
    },
    {
      "constant": true,
      "inputs": [
        {
          "internalType": "uint256",
          "name": "",
          "type": "uint256"
        }
      ],
      "name": "persons",
      "outputs": [
        {
          "internalType": "uint256",
          "name": "id",
          "type": "uint256"
        },
        {
          "internalType": "string",
          "name": "name",
          "type": "string"
        },
        {
          "internalType": "string",
          "name": "photourl",
          "type": "string"
        },
        {
          "internalType": "string",
          "name": "role",
          "type": "string"
        },
        {
          "internalType": "string",
          "name": "race",
          "type": "string"
        },
        {
          "internalType": "string",
          "name": "country",
          "type": "string"
        },
        {
          "internalType": "uint256",
          "name": "householdID",
          "type": "uint256"
        },
        {
          "internalType": "bool",
          "name": "alive",
          "type": "bool"
        }
      ],
      "payable": false,
      "stateMutability": "view",
      "type": "function",
      "signature": "0xa2f9eac6"
    },
    {
      "constant": false,
      "inputs": [
        {
          "internalType": "string",
          "name": "_name",
          "type": "string"
        },
        {
          "internalType": "string",
          "name": "_race",
          "type": "string"
        },
        {
          "internalType": "string",
          "name": "_photourl",
          "type": "string"
        },
        {
          "internalType": "string",
          "name": "_role",
          "type": "string"
        },
        {
          "internalType": "string",
          "name": "_country",
          "type": "string"
        },
        {
          "internalType": "bool",
          "name": "_alive",
          "type": "bool"
        },
        {
          "internalType": "uint256",
          "name": "_householdID",
          "type": "uint256"
        }
      ],
      "name": "createPerson",
      "outputs": [],
      "payable": false,
      "stateMutability": "nonpayable",
      "type": "function",
      "signature": "0xa3b16bb8"
    },
    {
      "constant": true,
      "inputs": [
        {
          "internalType": "uint256",
          "name": "_householdID",
          "type": "uint256"
        }
      ],
      "name": "getmemberslenght",
      "outputs": [
        {
          "internalType": "uint256",
          "name": "",
          "type": "uint256"
        }
      ],
      "payable": false,
      "stateMutability": "view",
      "type": "function",
      "signature": "0x0349e115"
    },
    {
      "constant": true,
      "inputs": [
        {
          "internalType": "uint256",
          "name": "_householdID",
          "type": "uint256"
        },
        {
          "internalType": "uint256",
          "name": "_member",
          "type": "uint256"
        }
      ],
      "name": "getfamilymember",
      "outputs": [
        {
          "internalType": "uint256",
          "name": "",
          "type": "uint256"
        }
      ],
      "payable": false,
      "stateMutability": "view",
      "type": "function",
      "signature": "0x1a280ebd"
    },
    {
      "constant": false,
      "inputs": [],
      "name": "gethousholdID",
      "outputs": [],
      "payable": false,
      "stateMutability": "nonpayable",
      "type": "function",
      "signature": "0x7e021005"
    },
    {
      "constant": false,
      "inputs": [],
      "name": "getpersonsstruct",
      "outputs": [
        {
          "internalType": "string",
          "name": "",
          "type": "string"
        }
      ],
      "payable": false,
      "stateMutability": "nonpayable",
      "type": "function",
      "signature": "0xbeadac03"
    }
  ],
  "bytecode": "0x608060405260006001553480156200001657600080fd5b506040518060400160405280600781526020017f4443656e7375730000000000000000000000000000000000000000000000000081525060009080519060200190620000649291906200006b565b506200011a565b828054600181600116156101000203166002900490600052602060002090601f016020900481019282601f10620000ae57805160ff1916838001178555620000df565b82800160010185558215620000df579182015b82811115620000de578251825591602001919060010190620000c1565b5b509050620000ee9190620000f2565b5090565b6200011791905b8082111562000113576000816000905550600101620000f9565b5090565b90565b611381806200012a6000396000f3fe608060405234801561001057600080fd5b50600436106100c6576000357c0100000000000000000000000000000000000000000000000000000000900480637e0210051161008e5780637e0210051461027a578063a2f9eac614610284578063a3b16bb8146104f4578063beadac0314610821578063c0991a37146108a4578063fc9f7f29146108c2576100c6565b80630349e115146100cb57806306fdde031461010d5780631a280ebd1461019057806345f86fa0146101dc57806378495bf81461025c575b600080fd5b6100f7600480360360208110156100e157600080fd5b8101908080359060200190929190505050610904565b6040518082815260200191505060405180910390f35b61011561092c565b6040518080602001828103825283818151815260200191508051906020019080838360005b8381101561015557808201518184015260208101905061013a565b50505050905090810190601f1680156101825780820380516001836020036101000a031916815260200191505b509250505060405180910390f35b6101c6600480360360408110156101a657600080fd5b8101908080359060200190929190803590602001909291905050506109ca565b6040518082815260200191505060405180910390f35b610208600480360360208110156101f257600080fd5b8101908080359060200190929190505050610a05565b60405180848152602001831515151581526020018273ffffffffffffffffffffffffffffffffffffffff1673ffffffffffffffffffffffffffffffffffffffff168152602001935050505060405180910390f35b610264610a5c565b6040518082815260200191505060405180910390f35b610282610a62565b005b6102b06004803603602081101561029a57600080fd5b8101908080359060200190929190505050610a64565b6040518089815260200180602001806020018060200180602001806020018881526020018715151515815260200186810386528d818151815260200191508051906020019080838360005b838110156103165780820151818401526020810190506102fb565b50505050905090810190601f1680156103435780820380516001836020036101000a031916815260200191505b5086810385528c818151815260200191508051906020019080838360005b8381101561037c578082015181840152602081019050610361565b50505050905090810190601f1680156103a95780820380516001836020036101000a031916815260200191505b5086810384528b818151815260200191508051906020019080838360005b838110156103e25780820151818401526020810190506103c7565b50505050905090810190601f16801561040f5780820380516001836020036101000a031916815260200191505b5086810383528a818151815260200191508051906020019080838360005b8381101561044857808201518184015260208101905061042d565b50505050905090810190601f1680156104755780820380516001836020036101000a031916815260200191505b50868103825289818151815260200191508051906020019080838360005b838110156104ae578082015181840152602081019050610493565b50505050905090810190601f1680156104db5780820380516001836020036101000a031916815260200191505b509d505050505050505050505050505060405180910390f35b61081f600480360360e081101561050a57600080fd5b810190808035906020019064010000000081111561052757600080fd5b82018360208201111561053957600080fd5b8035906020019184600183028401116401000000008311171561055b57600080fd5b91908080601f016020809104026020016040519081016040528093929190818152602001838380828437600081840152601f19601f820116905080830192505050505050509192919290803590602001906401000000008111156105be57600080fd5b8201836020820111156105d057600080fd5b803590602001918460018302840111640100000000831117156105f257600080fd5b91908080601f016020809104026020016040519081016040528093929190818152602001838380828437600081840152601f19601f8201169050808301925050505050505091929192908035906020019064010000000081111561065557600080fd5b82018360208201111561066757600080fd5b8035906020019184600183028401116401000000008311171561068957600080fd5b91908080601f016020809104026020016040519081016040528093929190818152602001838380828437600081840152601f19601f820116905080830192505050505050509192919290803590602001906401000000008111156106ec57600080fd5b8201836020820111156106fe57600080fd5b8035906020019184600183028401116401000000008311171561072057600080fd5b91908080601f016020809104026020016040519081016040528093929190818152602001838380828437600081840152601f19601f8201169050808301925050505050505091929192908035906020019064010000000081111561078357600080fd5b82018360208201111561079557600080fd5b803590602001918460018302840111640100000000831117156107b757600080fd5b91908080601f016020809104026020016040519081016040528093929190818152602001838380828437600081840152601f19601f82011690508083019250505050505050919291929080351515906020019092919080359060200190929190505050610db1565b005b610829611140565b6040518080602001828103825283818151815260200191508051906020019080838360005b8381101561086957808201518184015260208101905061084e565b50505050905090810190601f1680156108965780820380516001836020036101000a031916815260200191505b509250505060405180910390f35b6108ac6111fc565b6040518082815260200191505060405180910390f35b6108ee600480360360208110156108d857600080fd5b8101908080359060200190929190505050611202565b6040518082815260200191505060405180910390f35b6000806004600084815260200190815260200160002060010180549050905080915050919050565b60008054600181600116156101000203166002900480601f0160208091040260200160405190810160405280929190818152602001828054600181600116156101000203166002900480156109c25780601f10610997576101008083540402835291602001916109c2565b820191906000526020600020905b8154815290600101906020018083116109a557829003601f168201915b505050505081565b6000806004600085815260200190815260200160002060010183815481106109ee57fe5b906000526020600020015490508091505092915050565b60046020528060005260406000206000915090508060000154908060020160009054906101000a900460ff16908060020160019054906101000a900473ffffffffffffffffffffffffffffffffffffffff16905083565b60015481565b565b6003602052806000526040600020600091509050806000015490806001018054600181600116156101000203166002900480601f016020809104026020016040519081016040528092919081815260200182805460018160011615610100020316600290048015610b165780601f10610aeb57610100808354040283529160200191610b16565b820191906000526020600020905b815481529060010190602001808311610af957829003601f168201915b505050505090806002018054600181600116156101000203166002900480601f016020809104026020016040519081016040528092919081815260200182805460018160011615610100020316600290048015610bb45780601f10610b8957610100808354040283529160200191610bb4565b820191906000526020600020905b815481529060010190602001808311610b9757829003601f168201915b505050505090806003018054600181600116156101000203166002900480601f016020809104026020016040519081016040528092919081815260200182805460018160011615610100020316600290048015610c525780601f10610c2757610100808354040283529160200191610c52565b820191906000526020600020905b815481529060010190602001808311610c3557829003601f168201915b505050505090806004018054600181600116156101000203166002900480601f016020809104026020016040519081016040528092919081815260200182805460018160011615610100020316600290048015610cf05780601f10610cc557610100808354040283529160200191610cf0565b820191906000526020600020905b815481529060010190602001808311610cd357829003601f168201915b505050505090806005018054600181600116156101000203166002900480601f016020809104026020016040519081016040528092919081815260200182805460018160011615610100020316600290048015610d8e5780601f10610d6357610100808354040283529160200191610d8e565b820191906000526020600020905b815481529060010190602001808311610d7157829003601f168201915b5050505050908060060154908060070160009054906101000a900460ff16905088565b6001600081548092919060010191905055506040518061010001604052806001548152602001888152602001868152602001858152602001878152602001848152602001828152602001831515815250600360006001548152602001908152602001600020600082015181600001556020820151816001019080519060200190610e3c929190611220565b506040820151816002019080519060200190610e59929190611220565b506060820151816003019080519060200190610e76929190611220565b506080820151816004019080519060200190610e93929190611220565b5060a0820151816005019080519060200190610eb0929190611220565b5060c0820151816006015560e08201518160070160006101000a81548160ff021916908315150217905550905050600460008281526020019081526020016000206001016001549080600181540180825580915050906001820390600052602060002001600090919290919091505550336004600083815260200190815260200160002060020160016101000a81548173ffffffffffffffffffffffffffffffffffffffff021916908373ffffffffffffffffffffffffffffffffffffffff16021790555060056000828152602001908152602001600020600101600360006001548152602001908152602001600020908060018154018082558091505090600182039060005260206000209060080201600090919290919091506000820154816000015560018201816001019080546001816001161561010002031660029004610ffc9291906112a0565b50600282018160020190805460018160011615610100020316600290046110249291906112a0565b506003820181600301908054600181600116156101000203166002900461104c9291906112a0565b50600482018160040190805460018160011615610100020316600290046110749291906112a0565b506005820181600501908054600181600116156101000203166002900461109c9291906112a0565b50600682015481600601556007820160009054906101000a900460ff168160070160006101000a81548160ff0219169083151502179055505050506002600081548092919060010191905055503373ffffffffffffffffffffffffffffffffffffffff167f982bb66d9aa60573bc0a2066122e1466ecbc4c179a5e7c1c5b589345008ce69a826040518082815260200191505060405180910390a250505050505050565b60608060036000600181526020019081526020016000206001018054600181600116156101000203166002900480601f0160208091040260200160405190810160405280929190818152602001828054600181600116156101000203166002900480156111ee5780601f106111c3576101008083540402835291602001916111ee565b820191906000526020600020905b8154815290600101906020018083116111d157829003601f168201915b505050505090508091505090565b60025481565b60056020528060005260406000206000915090508060000154905081565b828054600181600116156101000203166002900490600052602060002090601f016020900481019282601f1061126157805160ff191683800117855561128f565b8280016001018555821561128f579182015b8281111561128e578251825591602001919060010190611273565b5b50905061129c9190611327565b5090565b828054600181600116156101000203166002900490600052602060002090601f016020900481019282601f106112d95780548555611316565b8280016001018555821561131657600052602060002091601f016020900482015b828111156113155782548255916001019190600101906112fa565b5b5090506113239190611327565b5090565b61134991905b8082111561134557600081600090555060010161132d565b5090565b9056fea265627a7a723158202602f711669d966710a4b15f5911bb54b3a99abe175a60626bba5043f6e0151564736f6c63430005110032",
  "source": "pragma solidity ^0.5.17;\n\n\ncontract Census {\n    string public name;\n    uint public personCount = 0;\n    uint public lasthouseholdID;\n    \n\n    mapping(uint => Person) public persons;\n    mapping(uint => Household) public households;\n    mapping(uint => ho) public hos;\n\n    struct Person {\n        uint id;\n        string name;\n        string photourl;\n        \n        string role;\n        string race;\n        string country;\n        uint householdID;\n        bool alive;\n    }\n    struct Household {\n        uint hid;\n        uint[] members;\n        bool Householdadded;\n        address submitter;\n    }\n    struct ho\n           {\n               uint hid;\n               Person[] member;\n           }\nevent ProductCreated (\n    address indexed wallet,\n    uint _householdID \n);\n\n\n\n    constructor() public {\n        name = \"DCensus\";\n    }\n\n      function createPerson(string memory _name, string memory _race, string memory _photourl,string memory _role, string memory _country, bool _alive, uint _householdID) public {\n        // Require a valid photo\n        // require(bytes(_photourl).length > 0);\n\n        \n        // Increment product count\n        \n        personCount ++;\n        // Create the product\n        persons[personCount] = Person(personCount, _name, _photourl, _role, _race, _country, _householdID, _alive);\n        households[_householdID].members.push(personCount);\n        households[_householdID].submitter = msg.sender;\n        hos[_householdID].member.push(persons[personCount]);\n        lasthouseholdID++;\n        // Trigger an event\n        emit ProductCreated(msg.sender,_householdID);\n    }\n        \n/*      function addmember(string memory _name, string memory _race, string memory _photourl,string memory _role, string memory _country, bool _alive, uint _householdID) public {\n        // Require a valid photo\n        \n        // require(bytes(_photourl).length > 0);\n\n     \n        // Increment product count\n        personCount ++;\n        // Create the product\n        households[_householdID].members.push(Person(personCount, _name, _photourl, _role, _race, _country,_householdID, _alive));\n        \n        // Trigger an event\n        //emit ProductCreated(productCount, _Persons, _race, _country);\n    } */\n    function getmemberslenght(uint _householdID) view public returns (uint) {\n        uint m; \n        m = households[_householdID].members.length; //it apeares you cannot directly return global varaibles\n        return m;\n    }\n    function getfamilymember(uint _householdID, uint _member) view public returns (uint) {\n        uint m;\n        m = households[_householdID].members[_member];\n        return m;\n    }\n// function familysubmit() public {\n//     require(households[lasthouseholdID].members.length > 0);\n// Householdadded[lasthouseholdID] = true ;\n// lasthouseholdID ++;\n// } \n    function gethousholdID() public {\n           \n        \n        \n          \n       \n           \n    }\n     function getpersonsstruct() public returns(string memory) {\n           string memory m;\n         //   hos[0].member[0]=persons[1];\n           m = persons[1].name;\n           return m;\n    }\n}\n",
  "sourcePath": "C:/Users/m/Documents/GitHub/DCensus/src/contracts/Census.sol",
  "compiler": {
    "name": "solc",
    "version": "0.5.17+commit.d19bba13.Emscripten.clang"
  },
  "schemaVersion": "3.0.2",
  "updatedAt": "2020-08-07T00:45:48.795Z",
  "devdoc": {
    "methods": {}
  },
  "userdoc": {
    "methods": {}
  }
}