{
  "contractName": "Census",
  "abi": [
    {
      "constant": true,
      "inputs": [],
      "name": "name",
      "outputs": [
        {
          "name": "",
          "type": "string"
        }
      ],
      "payable": false,
      "stateMutability": "view",
      "type": "function",
      "signature": "0x06fdde03"
    },
    {
      "constant": true,
      "inputs": [
        {
          "name": "",
          "type": "uint256"
        }
      ],
      "name": "households",
      "outputs": [
        {
          "name": "hid",
          "type": "uint256"
        }
      ],
      "payable": false,
      "stateMutability": "view",
      "type": "function",
      "signature": "0x45f86fa0"
    },
    {
      "constant": true,
      "inputs": [
        {
          "name": "",
          "type": "uint256"
        }
      ],
      "name": "Householdadded",
      "outputs": [
        {
          "name": "",
          "type": "bool"
        }
      ],
      "payable": false,
      "stateMutability": "view",
      "type": "function",
      "signature": "0x6e5bb531"
    },
    {
      "constant": true,
      "inputs": [],
      "name": "personCount",
      "outputs": [
        {
          "name": "",
          "type": "uint256"
        }
      ],
      "payable": false,
      "stateMutability": "view",
      "type": "function",
      "signature": "0x78495bf8"
    },
    {
      "constant": true,
      "inputs": [
        {
          "name": "",
          "type": "uint256"
        }
      ],
      "name": "persons",
      "outputs": [
        {
          "name": "id",
          "type": "uint256"
        },
        {
          "name": "name",
          "type": "string"
        },
        {
          "name": "photourl",
          "type": "string"
        },
        {
          "name": "role",
          "type": "string"
        },
        {
          "name": "race",
          "type": "string"
        },
        {
          "name": "country",
          "type": "string"
        },
        {
          "name": "householdID",
          "type": "uint256"
        },
        {
          "name": "alive",
          "type": "bool"
        }
      ],
      "payable": false,
      "stateMutability": "view",
      "type": "function",
      "signature": "0xa2f9eac6"
    },
    {
      "constant": true,
      "inputs": [],
      "name": "lasthouseholdID",
      "outputs": [
        {
          "name": "",
          "type": "uint256"
        }
      ],
      "payable": false,
      "stateMutability": "view",
      "type": "function",
      "signature": "0xc0991a37"
    },
    {
      "inputs": [],
      "payable": false,
      "stateMutability": "nonpayable",
      "type": "constructor",
      "signature": "constructor"
    },
    {
      "constant": false,
      "inputs": [
        {
          "name": "_name",
          "type": "string"
        },
        {
          "name": "_race",
          "type": "string"
        },
        {
          "name": "_photourl",
          "type": "string"
        },
        {
          "name": "_role",
          "type": "string"
        },
        {
          "name": "_country",
          "type": "string"
        },
        {
          "name": "_alive",
          "type": "bool"
        },
        {
          "name": "_householdID",
          "type": "uint256"
        }
      ],
      "name": "createPerson",
      "outputs": [],
      "payable": false,
      "stateMutability": "nonpayable",
      "type": "function",
      "signature": "0xa3b16bb8"
    },
    {
      "constant": false,
      "inputs": [
        {
          "name": "_name",
          "type": "string"
        },
        {
          "name": "_race",
          "type": "string"
        },
        {
          "name": "_photourl",
          "type": "string"
        },
        {
          "name": "_role",
          "type": "string"
        },
        {
          "name": "_country",
          "type": "string"
        },
        {
          "name": "_alive",
          "type": "bool"
        },
        {
          "name": "_householdID",
          "type": "uint256"
        }
      ],
      "name": "addmember",
      "outputs": [],
      "payable": false,
      "stateMutability": "nonpayable",
      "type": "function",
      "signature": "0x6bd948f5"
    }
  ],
  "bytecode": "0x6080604052600060015560006002553480156200001b57600080fd5b506040805190810160405280600781526020017f4443656e73757300000000000000000000000000000000000000000000000000815250600090805190602001906200006992919062000070565b506200011f565b828054600181600116156101000203166002900490600052602060002090601f016020900481019282601f10620000b357805160ff1916838001178555620000e4565b82800160010185558215620000e4579182015b82811115620000e3578251825591602001919060010190620000c6565b5b509050620000f39190620000f7565b5090565b6200011c91905b8082111562000118576000816000905550600101620000fe565b5090565b90565b611453806200012f6000396000f3fe60806040526004361061008e576000357c0100000000000000000000000000000000000000000000000000000000900463ffffffff16806306fdde031461009357806345f86fa0146101235780636bd948f5146101725780636e5bb531146104ac57806378495bf8146104ff578063a2f9eac61461052a578063a3b16bb8146107a7578063c0991a3714610ae1575b600080fd5b34801561009f57600080fd5b506100a8610b0c565b6040518080602001828103825283818151815260200191508051906020019080838360005b838110156100e85780820151818401526020810190506100cd565b50505050905090810190601f1680156101155780820380516001836020036101000a031916815260200191505b509250505060405180910390f35b34801561012f57600080fd5b5061015c6004803603602081101561014657600080fd5b8101908080359060200190929190505050610baa565b6040518082815260200191505060405180910390f35b34801561017e57600080fd5b506104aa600480360360e081101561019557600080fd5b81019080803590602001906401000000008111156101b257600080fd5b8201836020820111156101c457600080fd5b803590602001918460018302840111640100000000831117156101e657600080fd5b91908080601f016020809104026020016040519081016040528093929190818152602001838380828437600081840152601f19601f8201169050808301925050505050505091929192908035906020019064010000000081111561024957600080fd5b82018360208201111561025b57600080fd5b8035906020019184600183028401116401000000008311171561027d57600080fd5b91908080601f016020809104026020016040519081016040528093929190818152602001838380828437600081840152601f19601f820116905080830192505050505050509192919290803590602001906401000000008111156102e057600080fd5b8201836020820111156102f257600080fd5b8035906020019184600183028401116401000000008311171561031457600080fd5b91908080601f016020809104026020016040519081016040528093929190818152602001838380828437600081840152601f19601f8201169050808301925050505050505091929192908035906020019064010000000081111561037757600080fd5b82018360208201111561038957600080fd5b803590602001918460018302840111640100000000831117156103ab57600080fd5b91908080601f016020809104026020016040519081016040528093929190818152602001838380828437600081840152601f19601f8201169050808301925050505050505091929192908035906020019064010000000081111561040e57600080fd5b82018360208201111561042057600080fd5b8035906020019184600183028401116401000000008311171561044257600080fd5b91908080601f016020809104026020016040519081016040528093929190818152602001838380828437600081840152601f19601f82011690508083019250505050505050919291929080351515906020019092919080359060200190929190505050610bc8565b005b3480156104b857600080fd5b506104e5600480360360208110156104cf57600080fd5b8101908080359060200190929190505050610df5565b604051808215151515815260200191505060405180910390f35b34801561050b57600080fd5b50610514610e28565b6040518082815260200191505060405180910390f35b34801561053657600080fd5b506105636004803603602081101561054d57600080fd5b8101908080359060200190929190505050610e2e565b6040518089815260200180602001806020018060200180602001806020018881526020018715151515815260200186810386528d818151815260200191508051906020019080838360005b838110156105c95780820151818401526020810190506105ae565b50505050905090810190601f1680156105f65780820380516001836020036101000a031916815260200191505b5086810385528c818151815260200191508051906020019080838360005b8381101561062f578082015181840152602081019050610614565b50505050905090810190601f16801561065c5780820380516001836020036101000a031916815260200191505b5086810384528b818151815260200191508051906020019080838360005b8381101561069557808201518184015260208101905061067a565b50505050905090810190601f1680156106c25780820380516001836020036101000a031916815260200191505b5086810383528a818151815260200191508051906020019080838360005b838110156106fb5780820151818401526020810190506106e0565b50505050905090810190601f1680156107285780820380516001836020036101000a031916815260200191505b50868103825289818151815260200191508051906020019080838360005b83811015610761578082015181840152602081019050610746565b50505050905090810190601f16801561078e5780820380516001836020036101000a031916815260200191505b509d505050505050505050505050505060405180910390f35b3480156107b357600080fd5b50610adf600480360360e08110156107ca57600080fd5b81019080803590602001906401000000008111156107e757600080fd5b8201836020820111156107f957600080fd5b8035906020019184600183028401116401000000008311171561081b57600080fd5b91908080601f016020809104026020016040519081016040528093929190818152602001838380828437600081840152601f19601f8201169050808301925050505050505091929192908035906020019064010000000081111561087e57600080fd5b82018360208201111561089057600080fd5b803590602001918460018302840111640100000000831117156108b257600080fd5b91908080601f016020809104026020016040519081016040528093929190818152602001838380828437600081840152601f19601f8201169050808301925050505050505091929192908035906020019064010000000081111561091557600080fd5b82018360208201111561092757600080fd5b8035906020019184600183028401116401000000008311171561094957600080fd5b91908080601f016020809104026020016040519081016040528093929190818152602001838380828437600081840152601f19601f820116905080830192505050505050509192919290803590602001906401000000008111156109ac57600080fd5b8201836020820111156109be57600080fd5b803590602001918460018302840111640100000000831117156109e057600080fd5b91908080601f016020809104026020016040519081016040528093929190818152602001838380828437600081840152601f19601f82011690508083019250505050505050919291929080359060200190640100000000811115610a4357600080fd5b820183602082011115610a5557600080fd5b80359060200191846001830284011164010000000083111715610a7757600080fd5b91908080601f016020809104026020016040519081016040528093929190818152602001838380828437600081840152601f19601f8201169050808301925050505050505091929192908035151590602001909291908035906020019092919050505061117b565b005b348015610aed57600080fd5b50610af661137c565b6040518082815260200191505060405180910390f35b60008054600181600116156101000203166002900480601f016020809104026020016040519081016040528092919081815260200182805460018160011615610100020316600290048015610ba25780601f10610b7757610100808354040283529160200191610ba2565b820191906000526020600020905b815481529060010190602001808311610b8557829003601f168201915b505050505081565b60046020528060005260406000206000915090508060000154905081565b60056000908060018154018082558091505090600182039060005260206000209060209182820401919006909192909190916101000a81548160ff02191690831515021790555050600581815481101515610c1f57fe5b90600052602060002090602091828204019190069054906101000a900460ff161515610c92576001600582815481101515610c5657fe5b90600052602060002090602091828204019190066101000a81548160ff0219169083151502179055506002600081548092919060010191905055505b6001600081548092919060010191905055506004600082815260200190815260200160002060010161010060405190810160405280600154815260200189815260200187815260200186815260200188815260200185815260200183815260200184151581525090806001815401808255809150509060018203906000526020600020906008020160009091929091909150600082015181600001556020820151816001019080519060200190610d4a929190611382565b506040820151816002019080519060200190610d67929190611382565b506060820151816003019080519060200190610d84929190611382565b506080820151816004019080519060200190610da1929190611382565b5060a0820151816005019080519060200190610dbe929190611382565b5060c0820151816006015560e08201518160070160006101000a81548160ff02191690831515021790555050505050505050505050565b600581815481101515610e0457fe5b9060005260206000209060209182820401919006915054906101000a900460ff1681565b60015481565b6003602052806000526040600020600091509050806000015490806001018054600181600116156101000203166002900480601f016020809104026020016040519081016040528092919081815260200182805460018160011615610100020316600290048015610ee05780601f10610eb557610100808354040283529160200191610ee0565b820191906000526020600020905b815481529060010190602001808311610ec357829003601f168201915b505050505090806002018054600181600116156101000203166002900480601f016020809104026020016040519081016040528092919081815260200182805460018160011615610100020316600290048015610f7e5780601f10610f5357610100808354040283529160200191610f7e565b820191906000526020600020905b815481529060010190602001808311610f6157829003601f168201915b505050505090806003018054600181600116156101000203166002900480601f01602080910402602001604051908101604052809291908181526020018280546001816001161561010002031660029004801561101c5780601f10610ff15761010080835404028352916020019161101c565b820191906000526020600020905b815481529060010190602001808311610fff57829003601f168201915b505050505090806004018054600181600116156101000203166002900480601f0160208091040260200160405190810160405280929190818152602001828054600181600116156101000203166002900480156110ba5780601f1061108f576101008083540402835291602001916110ba565b820191906000526020600020905b81548152906001019060200180831161109d57829003601f168201915b505050505090806005018054600181600116156101000203166002900480601f0160208091040260200160405190810160405280929190818152602001828054600181600116156101000203166002900480156111585780601f1061112d57610100808354040283529160200191611158565b820191906000526020600020905b81548152906001019060200180831161113b57829003601f168201915b5050505050908060060154908060070160009054906101000a900460ff16905088565b60056000908060018154018082558091505090600182039060005260206000209060209182820401919006909192909190916101000a81548160ff021916908315150217905550506005818154811015156111d257fe5b90600052602060002090602091828204019190069054906101000a900460ff16151561124557600160058281548110151561120957fe5b90600052602060002090602091828204019190066101000a81548160ff0219169083151502179055506002600081548092919060010191905055505b6001600081548092919060010191905055506101006040519081016040528060015481526020018881526020018681526020018581526020018781526020018481526020018281526020018315158152506003600060015481526020019081526020016000206000820151816000015560208201518160010190805190602001906112d1929190611382565b5060408201518160020190805190602001906112ee929190611382565b50606082015181600301908051906020019061130b929190611382565b506080820151816004019080519060200190611328929190611382565b5060a0820151816005019080519060200190611345929190611382565b5060c0820151816006015560e08201518160070160006101000a81548160ff02191690831515021790555090505050505050505050565b60025481565b828054600181600116156101000203166002900490600052602060002090601f016020900481019282601f106113c357805160ff19168380011785556113f1565b828001600101855582156113f1579182015b828111156113f05782518255916020019190600101906113d5565b5b5090506113fe9190611402565b5090565b61142491905b80821115611420576000816000905550600101611408565b5090565b9056fea165627a7a72305820d38247c53e295fee049462e8fafff36845869f274288361695de68560075b5ac0029",
  "source": "pragma solidity ^0.5.0;\n\ncontract Census {\n    string public name;\n    uint public personCount = 0;\n    uint public lasthouseholdID = 0;\n    \n\n    mapping(uint => Person) public persons;\n    mapping(uint => Household) public households;\n\n    struct Person {\n        uint id;\n        string name;\n        string photourl;\n        \n        string role;\n        string race;\n        string country;\n        uint householdID;\n        bool alive;\n    }\n    struct Household {\n        uint hid;\n        Person[] members;\n \n    }\n\n\n   bool[] public Householdadded;\n\n\n\n    constructor() public {\n        name = \"DCensus\";\n    }\n\n      function createPerson(string memory _name, string memory _race, string memory _photourl,string memory _role, string memory _country, bool _alive, uint _householdID) public {\n        // Require a valid photo\n        // require(bytes(_photourl).length > 0);\n        Householdadded.push(false);\n        if (!Householdadded[_householdID]){\n    \n           Householdadded[_householdID] = true ;\n        lasthouseholdID ++;\n         }\n        \n        // Increment product count\n        \n        personCount ++;\n        // Create the product\n        persons[personCount] = Person(personCount, _name, _photourl, _role, _race, _country, _householdID, _alive);\n       // households[_householdID].me = \n        // Trigger an event\n        //emit ProductCreated(productCount, _Persons, _race, _country);\n    }\n        \n     function addmember(string memory _name, string memory _race, string memory _photourl,string memory _role, string memory _country, bool _alive, uint _householdID) public {\n        // Require a valid photo\n        \n        // require(bytes(_photourl).length > 0);\n        Householdadded.push(false);\n        if (!Householdadded[_householdID]){\n    \n           Householdadded[_householdID] = true ;\n        lasthouseholdID ++;\n        \n          }\n     \n        // Increment product count\n        personCount ++;\n        // Create the product\n        households[_householdID].members.push(Person(personCount, _name, _photourl, _role, _race, _country,_householdID, _alive));\n        \n        // Trigger an event\n        //emit ProductCreated(productCount, _Persons, _race, _country);\n    }\n\n\n}\n",
  "sourcePath": "C:/Users/m/Documents/GitHub/DCensus/src/contracts/Census.sol",
  "compiler": {
    "name": "solc",
    "version": "0.5.0+commit.1d4f565a.Emscripten.clang"
  },
  "schemaVersion": "3.0.2",
  "updatedAt": "2020-08-06T01:27:26.471Z",
  "devdoc": {
    "methods": {}
  },
  "userdoc": {
    "methods": {}
  }
}