{
  "contractName": "Census",
  "abi": [
    {
      "constant": true,
      "inputs": [],
      "name": "name",
      "outputs": [
        {
          "name": "",
          "type": "string"
        }
      ],
      "payable": false,
      "stateMutability": "view",
      "type": "function",
      "signature": "0x06fdde03"
    },
    {
      "constant": true,
      "inputs": [
        {
          "name": "",
          "type": "uint256"
        }
      ],
      "name": "households",
      "outputs": [
        {
          "name": "hid",
          "type": "uint256"
        }
      ],
      "payable": false,
      "stateMutability": "view",
      "type": "function",
      "signature": "0x45f86fa0"
    },
    {
      "constant": true,
      "inputs": [
        {
          "name": "",
          "type": "uint256"
        }
      ],
      "name": "Householdadded",
      "outputs": [
        {
          "name": "",
          "type": "bool"
        }
      ],
      "payable": false,
      "stateMutability": "view",
      "type": "function",
      "signature": "0x6e5bb531"
    },
    {
      "constant": true,
      "inputs": [],
      "name": "personCount",
      "outputs": [
        {
          "name": "",
          "type": "uint256"
        }
      ],
      "payable": false,
      "stateMutability": "view",
      "type": "function",
      "signature": "0x78495bf8"
    },
    {
      "constant": true,
      "inputs": [
        {
          "name": "",
          "type": "uint256"
        }
      ],
      "name": "persons",
      "outputs": [
        {
          "name": "id",
          "type": "uint256"
        },
        {
          "name": "name",
          "type": "string"
        },
        {
          "name": "photourl",
          "type": "string"
        },
        {
          "name": "role",
          "type": "string"
        },
        {
          "name": "race",
          "type": "string"
        },
        {
          "name": "country",
          "type": "string"
        },
        {
          "name": "alive",
          "type": "bool"
        }
      ],
      "payable": false,
      "stateMutability": "view",
      "type": "function",
      "signature": "0xa2f9eac6"
    },
    {
      "constant": true,
      "inputs": [],
      "name": "lasthouseholdID",
      "outputs": [
        {
          "name": "",
          "type": "uint256"
        }
      ],
      "payable": false,
      "stateMutability": "view",
      "type": "function",
      "signature": "0xc0991a37"
    },
    {
      "constant": true,
      "inputs": [],
      "name": "member",
      "outputs": [
        {
          "name": "",
          "type": "uint256"
        }
      ],
      "payable": false,
      "stateMutability": "view",
      "type": "function",
      "signature": "0xe3f6b544"
    },
    {
      "inputs": [],
      "payable": false,
      "stateMutability": "nonpayable",
      "type": "constructor",
      "signature": "constructor"
    },
    {
      "constant": false,
      "inputs": [
        {
          "name": "_name",
          "type": "string"
        },
        {
          "name": "_race",
          "type": "string"
        },
        {
          "name": "_photourl",
          "type": "string"
        },
        {
          "name": "_role",
          "type": "string"
        },
        {
          "name": "_country",
          "type": "string"
        },
        {
          "name": "_alive",
          "type": "bool"
        },
        {
          "name": "_householdID",
          "type": "uint256"
        }
      ],
      "name": "addmember",
      "outputs": [],
      "payable": false,
      "stateMutability": "nonpayable",
      "type": "function",
      "signature": "0x6bd948f5"
    }
  ],
  "bytecode": "0x60806040526000600155600060025534801561001a57600080fd5b506040805190810160405280600781526020017f4443656e737573000000000000000000000000000000000000000000000000008152506000908051906020019061006692919061006c565b50610111565b828054600181600116156101000203166002900490600052602060002090601f016020900481019282601f106100ad57805160ff19168380011785556100db565b828001600101855582156100db579182015b828111156100da5782518255916020019190600101906100bf565b5b5090506100e891906100ec565b5090565b61010e91905b8082111561010a5760008160009055506001016100f2565b5090565b90565b610f40806101206000396000f3fe60806040526004361061008e576000357c0100000000000000000000000000000000000000000000000000000000900463ffffffff16806306fdde031461009357806345f86fa0146101235780636bd948f5146101725780636e5bb531146104ac57806378495bf8146104ff578063a2f9eac61461052a578063c0991a37146107a0578063e3f6b544146107cb575b600080fd5b34801561009f57600080fd5b506100a86107f6565b6040518080602001828103825283818151815260200191508051906020019080838360005b838110156100e85780820151818401526020810190506100cd565b50505050905090810190601f1680156101155780820380516001836020036101000a031916815260200191505b509250505060405180910390f35b34801561012f57600080fd5b5061015c6004803603602081101561014657600080fd5b8101908080359060200190929190505050610894565b6040518082815260200191505060405180910390f35b34801561017e57600080fd5b506104aa600480360360e081101561019557600080fd5b81019080803590602001906401000000008111156101b257600080fd5b8201836020820111156101c457600080fd5b803590602001918460018302840111640100000000831117156101e657600080fd5b91908080601f016020809104026020016040519081016040528093929190818152602001838380828437600081840152601f19601f8201169050808301925050505050505091929192908035906020019064010000000081111561024957600080fd5b82018360208201111561025b57600080fd5b8035906020019184600183028401116401000000008311171561027d57600080fd5b91908080601f016020809104026020016040519081016040528093929190818152602001838380828437600081840152601f19601f820116905080830192505050505050509192919290803590602001906401000000008111156102e057600080fd5b8201836020820111156102f257600080fd5b8035906020019184600183028401116401000000008311171561031457600080fd5b91908080601f016020809104026020016040519081016040528093929190818152602001838380828437600081840152601f19601f8201169050808301925050505050505091929192908035906020019064010000000081111561037757600080fd5b82018360208201111561038957600080fd5b803590602001918460018302840111640100000000831117156103ab57600080fd5b91908080601f016020809104026020016040519081016040528093929190818152602001838380828437600081840152601f19601f8201169050808301925050505050505091929192908035906020019064010000000081111561040e57600080fd5b82018360208201111561042057600080fd5b8035906020019184600183028401116401000000008311171561044257600080fd5b91908080601f016020809104026020016040519081016040528093929190818152602001838380828437600081840152601f19601f820116905080830192505050505050509192919290803515159060200190929190803590602001909291905050506108b2565b005b3480156104b857600080fd5b506104e5600480360360208110156104cf57600080fd5b8101908080359060200190929190505050610ae3565b604051808215151515815260200191505060405180910390f35b34801561050b57600080fd5b50610514610b16565b6040518082815260200191505060405180910390f35b34801561053657600080fd5b506105636004803603602081101561054d57600080fd5b8101908080359060200190929190505050610b1c565b6040518088815260200180602001806020018060200180602001806020018715151515815260200186810386528c818151815260200191508051906020019080838360005b838110156105c35780820151818401526020810190506105a8565b50505050905090810190601f1680156105f05780820380516001836020036101000a031916815260200191505b5086810385528b818151815260200191508051906020019080838360005b8381101561062957808201518184015260208101905061060e565b50505050905090810190601f1680156106565780820380516001836020036101000a031916815260200191505b5086810384528a818151815260200191508051906020019080838360005b8381101561068f578082015181840152602081019050610674565b50505050905090810190601f1680156106bc5780820380516001836020036101000a031916815260200191505b50868103835289818151815260200191508051906020019080838360005b838110156106f55780820151818401526020810190506106da565b50505050905090810190601f1680156107225780820380516001836020036101000a031916815260200191505b50868103825288818151815260200191508051906020019080838360005b8381101561075b578082015181840152602081019050610740565b50505050905090810190601f1680156107885780820380516001836020036101000a031916815260200191505b509c5050505050505050505050505060405180910390f35b3480156107ac57600080fd5b506107b5610e63565b6040518082815260200191505060405180910390f35b3480156107d757600080fd5b506107e0610e69565b6040518082815260200191505060405180910390f35b60008054600181600116156101000203166002900480601f01602080910402602001604051908101604052809291908181526020018280546001816001161561010002031660029004801561088c5780601f106108615761010080835404028352916020019161088c565b820191906000526020600020905b81548152906001019060200180831161086f57829003601f168201915b505050505081565b60056020528060005260406000206000915090508060000154905081565b600085511115156108c257600080fd5b6006818154811015156108d157fe5b90600052602060002090602091828204019190069054906101000a900460ff16151561094c57600160068281548110151561090857fe5b90600052602060002090602091828204019190066101000a81548160ff02191690831515021790555060026000815480929190600101919050555060006003819055505b60006005600083815260200190815260200160002060010160035481548110151561097357fe5b90600052602060002090600702016000015414151561099f576003600081548092919060010191905055505b60016000815480929190600101919050555060e060405190810160405280600154815260200188815260200186815260200185815260200187815260200184815260200183151581525060056000838152602001908152602001600020600101600354815481101515610a0e57fe5b9060005260206000209060070201600082015181600001556020820151816001019080519060200190610a42929190610e6f565b506040820151816002019080519060200190610a5f929190610e6f565b506060820151816003019080519060200190610a7c929190610e6f565b506080820151816004019080519060200190610a99929190610e6f565b5060a0820151816005019080519060200190610ab6929190610e6f565b5060c08201518160060160006101000a81548160ff02191690831515021790555090505050505050505050565b600681815481101515610af257fe5b9060005260206000209060209182820401919006915054906101000a900460ff1681565b60015481565b6004602052806000526040600020600091509050806000015490806001018054600181600116156101000203166002900480601f016020809104026020016040519081016040528092919081815260200182805460018160011615610100020316600290048015610bce5780601f10610ba357610100808354040283529160200191610bce565b820191906000526020600020905b815481529060010190602001808311610bb157829003601f168201915b505050505090806002018054600181600116156101000203166002900480601f016020809104026020016040519081016040528092919081815260200182805460018160011615610100020316600290048015610c6c5780601f10610c4157610100808354040283529160200191610c6c565b820191906000526020600020905b815481529060010190602001808311610c4f57829003601f168201915b505050505090806003018054600181600116156101000203166002900480601f016020809104026020016040519081016040528092919081815260200182805460018160011615610100020316600290048015610d0a5780601f10610cdf57610100808354040283529160200191610d0a565b820191906000526020600020905b815481529060010190602001808311610ced57829003601f168201915b505050505090806004018054600181600116156101000203166002900480601f016020809104026020016040519081016040528092919081815260200182805460018160011615610100020316600290048015610da85780601f10610d7d57610100808354040283529160200191610da8565b820191906000526020600020905b815481529060010190602001808311610d8b57829003601f168201915b505050505090806005018054600181600116156101000203166002900480601f016020809104026020016040519081016040528092919081815260200182805460018160011615610100020316600290048015610e465780601f10610e1b57610100808354040283529160200191610e46565b820191906000526020600020905b815481529060010190602001808311610e2957829003601f168201915b5050505050908060060160009054906101000a900460ff16905087565b60025481565b60035481565b828054600181600116156101000203166002900490600052602060002090601f016020900481019282601f10610eb057805160ff1916838001178555610ede565b82800160010185558215610ede579182015b82811115610edd578251825591602001919060010190610ec2565b5b509050610eeb9190610eef565b5090565b610f1191905b80821115610f0d576000816000905550600101610ef5565b5090565b9056fea165627a7a7230582098749a92d6aa59021fc5ae7fd32fd8b3dd0eeeba0c802d63ca9ce5335296fad60029",
  "source": "pragma solidity ^0.5.0;\n\ncontract Census {\n    string public name;\n    uint public personCount = 0;\n    uint public lasthouseholdID = 0;\n    uint public member;\n\n    mapping(uint => Person) public persons;\n    mapping(uint => Household) public households;\n\n    struct Person {\n        uint id;\n        string name;\n        string photourl;\n        \n        string role;\n        string race;\n        string country;\n//        uint householdID;\n        bool alive;\n    }\n    struct Household {\n        uint hid;\n        Person[] members;\n \n    }\n\n\n   bool[] public Householdadded;\n\n\n\n    constructor() public {\n        name = \"DCensus\";\n    }\n\n    // function createPerson(string memory _name, string memory _race, string memory _photourl,string memory _role, string memory _country, bool _alive, uint _householdID) public {\n    //     // Require a valid photo\n    //     require(bytes(_photourl).length > 0);\n    //     if (!Householdadded[_householdID]){\n    \n    //        Householdadded[_householdID] = true ;\n    //     lasthouseholdID ++;\n    //      }\n        \n    //     // Increment product count\n        \n    //     personCount ++;\n    //     // Create the product\n    //     persons[personCount] = Person(personCount, _name, _photourl, _role, _race, _country, _householdID, _alive);\n    //     // Trigger an event\n    //     //emit ProductCreated(productCount, _Persons, _race, _country);\n    // }\n        function addmember(string memory _name, string memory _race, string memory _photourl,string memory _role, string memory _country, bool _alive, uint _householdID) public {\n        // Require a valid photo\n        \n        require(bytes(_photourl).length > 0);\n        \n        if (!Householdadded[_householdID]){\n    \n           Householdadded[_householdID] = true ;\n        lasthouseholdID ++;\n        member = 0;\n         }\n        if (households[_householdID].members[member].id != 0)\n        { \n            member ++;\n        }\n        // Increment product count\n        personCount ++;\n        // Create the product\n        households[_householdID].members[member] = Person(personCount, _name, _photourl, _role, _race, _country, _alive);\n        // Trigger an event\n        //emit ProductCreated(productCount, _Persons, _race, _country);\n    }\n\n\n}\n",
  "sourcePath": "C:/Users/m/Documents/GitHub/DCensus/src/contracts/Census.sol",
  "compiler": {
    "name": "solc",
    "version": "0.5.0+commit.1d4f565a.Emscripten.clang"
  },
  "schemaVersion": "3.0.2",
  "updatedAt": "2020-08-05T18:00:58.753Z",
  "devdoc": {
    "methods": {}
  },
  "userdoc": {
    "methods": {}
  }
}