{
  "contractName": "Census",
  "abi": [
    {
      "constant": true,
      "inputs": [],
      "name": "name",
      "outputs": [
        {
          "name": "",
          "type": "string"
        }
      ],
      "payable": false,
      "stateMutability": "view",
      "type": "function",
      "signature": "0x06fdde03"
    },
    {
      "constant": true,
      "inputs": [
        {
          "name": "",
          "type": "uint256"
        }
      ],
      "name": "Householdadded",
      "outputs": [
        {
          "name": "",
          "type": "bool"
        }
      ],
      "payable": false,
      "stateMutability": "view",
      "type": "function",
      "signature": "0x6e5bb531"
    },
    {
      "constant": true,
      "inputs": [],
      "name": "personCount",
      "outputs": [
        {
          "name": "",
          "type": "uint256"
        }
      ],
      "payable": false,
      "stateMutability": "view",
      "type": "function",
      "signature": "0x78495bf8"
    },
    {
      "constant": true,
      "inputs": [
        {
          "name": "",
          "type": "uint256"
        }
      ],
      "name": "persons",
      "outputs": [
        {
          "name": "id",
          "type": "uint256"
        },
        {
          "name": "name",
          "type": "string"
        },
        {
          "name": "photourl",
          "type": "string"
        },
        {
          "name": "role",
          "type": "string"
        },
        {
          "name": "race",
          "type": "string"
        },
        {
          "name": "country",
          "type": "string"
        },
        {
          "name": "householdID",
          "type": "uint256"
        },
        {
          "name": "alive",
          "type": "bool"
        }
      ],
      "payable": false,
      "stateMutability": "view",
      "type": "function",
      "signature": "0xa2f9eac6"
    },
    {
      "constant": true,
      "inputs": [],
      "name": "lasthouseholdID",
      "outputs": [
        {
          "name": "",
          "type": "uint256"
        }
      ],
      "payable": false,
      "stateMutability": "view",
      "type": "function",
      "signature": "0xc0991a37"
    },
    {
      "inputs": [],
      "payable": false,
      "stateMutability": "nonpayable",
      "type": "constructor",
      "signature": "constructor"
    },
    {
      "constant": false,
      "inputs": [
        {
          "name": "_name",
          "type": "string"
        },
        {
          "name": "_race",
          "type": "string"
        },
        {
          "name": "_photourl",
          "type": "string"
        },
        {
          "name": "_role",
          "type": "string"
        },
        {
          "name": "_country",
          "type": "string"
        },
        {
          "name": "_alive",
          "type": "bool"
        },
        {
          "name": "_householdID",
          "type": "uint256"
        }
      ],
      "name": "createPerson",
      "outputs": [],
      "payable": false,
      "stateMutability": "nonpayable",
      "type": "function",
      "signature": "0xa3b16bb8"
    },
    {
      "constant": true,
      "inputs": [],
      "name": "getlasthouseholdID",
      "outputs": [
        {
          "name": "",
          "type": "uint256"
        }
      ],
      "payable": false,
      "stateMutability": "view",
      "type": "function",
      "signature": "0x32d10de6"
    }
  ],
  "bytecode": "0x60806040526000600155600060025534801561001a57600080fd5b506040805190810160405280600781526020017f4443656e737573000000000000000000000000000000000000000000000000008152506000908051906020019061006692919061006c565b50610111565b828054600181600116156101000203166002900490600052602060002090601f016020900481019282601f106100ad57805160ff19168380011785556100db565b828001600101855582156100db579182015b828111156100da5782518255916020019190600101906100bf565b5b5090506100e891906100ec565b5090565b61010e91905b8082111561010a5760008160009055506001016100f2565b5090565b90565b610e71806101206000396000f3fe608060405260043610610083576000357c0100000000000000000000000000000000000000000000000000000000900463ffffffff16806306fdde031461008857806332d10de6146101185780636e5bb5311461014357806378495bf814610196578063a2f9eac6146101c1578063a3b16bb81461043e578063c0991a3714610778575b600080fd5b34801561009457600080fd5b5061009d6107a3565b6040518080602001828103825283818151815260200191508051906020019080838360005b838110156100dd5780820151818401526020810190506100c2565b50505050905090810190601f16801561010a5780820380516001836020036101000a031916815260200191505b509250505060405180910390f35b34801561012457600080fd5b5061012d610841565b6040518082815260200191505060405180910390f35b34801561014f57600080fd5b5061017c6004803603602081101561016657600080fd5b810190808035906020019092919050505061084b565b604051808215151515815260200191505060405180910390f35b3480156101a257600080fd5b506101ab61087e565b6040518082815260200191505060405180910390f35b3480156101cd57600080fd5b506101fa600480360360208110156101e457600080fd5b8101908080359060200190929190505050610884565b6040518089815260200180602001806020018060200180602001806020018881526020018715151515815260200186810386528d818151815260200191508051906020019080838360005b83811015610260578082015181840152602081019050610245565b50505050905090810190601f16801561028d5780820380516001836020036101000a031916815260200191505b5086810385528c818151815260200191508051906020019080838360005b838110156102c65780820151818401526020810190506102ab565b50505050905090810190601f1680156102f35780820380516001836020036101000a031916815260200191505b5086810384528b818151815260200191508051906020019080838360005b8381101561032c578082015181840152602081019050610311565b50505050905090810190601f1680156103595780820380516001836020036101000a031916815260200191505b5086810383528a818151815260200191508051906020019080838360005b83811015610392578082015181840152602081019050610377565b50505050905090810190601f1680156103bf5780820380516001836020036101000a031916815260200191505b50868103825289818151815260200191508051906020019080838360005b838110156103f85780820151818401526020810190506103dd565b50505050905090810190601f1680156104255780820380516001836020036101000a031916815260200191505b509d505050505050505050505050505060405180910390f35b34801561044a57600080fd5b50610776600480360360e081101561046157600080fd5b810190808035906020019064010000000081111561047e57600080fd5b82018360208201111561049057600080fd5b803590602001918460018302840111640100000000831117156104b257600080fd5b91908080601f016020809104026020016040519081016040528093929190818152602001838380828437600081840152601f19601f8201169050808301925050505050505091929192908035906020019064010000000081111561051557600080fd5b82018360208201111561052757600080fd5b8035906020019184600183028401116401000000008311171561054957600080fd5b91908080601f016020809104026020016040519081016040528093929190818152602001838380828437600081840152601f19601f820116905080830192505050505050509192919290803590602001906401000000008111156105ac57600080fd5b8201836020820111156105be57600080fd5b803590602001918460018302840111640100000000831117156105e057600080fd5b91908080601f016020809104026020016040519081016040528093929190818152602001838380828437600081840152601f19601f8201169050808301925050505050505091929192908035906020019064010000000081111561064357600080fd5b82018360208201111561065557600080fd5b8035906020019184600183028401116401000000008311171561067757600080fd5b91908080601f016020809104026020016040519081016040528093929190818152602001838380828437600081840152601f19601f820116905080830192505050505050509192919290803590602001906401000000008111156106da57600080fd5b8201836020820111156106ec57600080fd5b8035906020019184600183028401116401000000008311171561070e57600080fd5b91908080601f016020809104026020016040519081016040528093929190818152602001838380828437600081840152601f19601f82011690508083019250505050505050919291929080351515906020019092919080359060200190929190505050610bd1565b005b34801561078457600080fd5b5061078d610d9a565b6040518082815260200191505060405180910390f35b60008054600181600116156101000203166002900480601f0160208091040260200160405190810160405280929190818152602001828054600181600116156101000203166002900480156108395780601f1061080e57610100808354040283529160200191610839565b820191906000526020600020905b81548152906001019060200180831161081c57829003601f168201915b505050505081565b6000600254905090565b60048181548110151561085a57fe5b9060005260206000209060209182820401919006915054906101000a900460ff1681565b60015481565b6003602052806000526040600020600091509050806000015490806001018054600181600116156101000203166002900480601f0160208091040260200160405190810160405280929190818152602001828054600181600116156101000203166002900480156109365780601f1061090b57610100808354040283529160200191610936565b820191906000526020600020905b81548152906001019060200180831161091957829003601f168201915b505050505090806002018054600181600116156101000203166002900480601f0160208091040260200160405190810160405280929190818152602001828054600181600116156101000203166002900480156109d45780601f106109a9576101008083540402835291602001916109d4565b820191906000526020600020905b8154815290600101906020018083116109b757829003601f168201915b505050505090806003018054600181600116156101000203166002900480601f016020809104026020016040519081016040528092919081815260200182805460018160011615610100020316600290048015610a725780601f10610a4757610100808354040283529160200191610a72565b820191906000526020600020905b815481529060010190602001808311610a5557829003601f168201915b505050505090806004018054600181600116156101000203166002900480601f016020809104026020016040519081016040528092919081815260200182805460018160011615610100020316600290048015610b105780601f10610ae557610100808354040283529160200191610b10565b820191906000526020600020905b815481529060010190602001808311610af357829003601f168201915b505050505090806005018054600181600116156101000203166002900480601f016020809104026020016040519081016040528092919081815260200182805460018160011615610100020316600290048015610bae5780601f10610b8357610100808354040283529160200191610bae565b820191906000526020600020905b815481529060010190602001808311610b9157829003601f168201915b5050505050908060060154908060070160009054906101000a900460ff16905088565b60008551111515610be157600080fd5b600481815481101515610bf057fe5b90600052602060002090602091828204019190069054906101000a900460ff161515610c63576001600482815481101515610c2757fe5b90600052602060002090602091828204019190066101000a81548160ff0219169083151502179055506002600081548092919060010191905055505b600160008154809291906001019190505550610100604051908101604052806001548152602001888152602001868152602001858152602001878152602001848152602001828152602001831515815250600360006001548152602001908152602001600020600082015181600001556020820151816001019080519060200190610cef929190610da0565b506040820151816002019080519060200190610d0c929190610da0565b506060820151816003019080519060200190610d29929190610da0565b506080820151816004019080519060200190610d46929190610da0565b5060a0820151816005019080519060200190610d63929190610da0565b5060c0820151816006015560e08201518160070160006101000a81548160ff02191690831515021790555090505050505050505050565b60025481565b828054600181600116156101000203166002900490600052602060002090601f016020900481019282601f10610de157805160ff1916838001178555610e0f565b82800160010185558215610e0f579182015b82811115610e0e578251825591602001919060010190610df3565b5b509050610e1c9190610e20565b5090565b610e4291905b80821115610e3e576000816000905550600101610e26565b5090565b9056fea165627a7a72305820b171c0f6f31dd0972c032abcbdd01f3860a82460853406f4dc4d00bb6fbdcfa20029",
  "source": "pragma solidity ^0.5.0;\n\ncontract Census {\n    string public name;\n    uint public personCount = 0;\n    uint public lasthouseholdID = 0;\n\n    mapping(uint => Person) public persons;\n\n    struct Person {\n        uint id;\n        string name;\n        string photourl;\n        \n        string role;\n        string race;\n        string country;\n        uint householdID;\n        bool alive;\n    }\n\n   bool[] public Householdadded;\n\n\n\n    constructor() public {\n        name = \"DCensus\";\n    }\n\n    function createPerson(string memory _name, string memory _race, string memory _photourl,string memory _role, string memory _country, bool _alive, uint _householdID) public {\n        // Require a valid name\n        require(bytes(_photourl).length > 0);\n        if (!Householdadded[_householdID]){\n    \n           Householdadded[_householdID] = true ;\n        lasthouseholdID ++;\n         }\n        \n        // Increment product count\n        personCount ++;\n        // Create the product\n        persons[personCount] = Person(personCount, _name, _photourl, _role, _race, _country, _householdID, _alive);\n        // Trigger an event\n        //emit ProductCreated(productCount, _Persons, _race, _country);\n    }\n\n    function getlasthouseholdID() public view returns (uint) {\n        return lasthouseholdID;\n    }\n}\n",
  "sourcePath": "C:/Users/m/Documents/GitHub/DCensus/src/contracts/Census.sol",
  "compiler": {
    "name": "solc",
    "version": "0.5.0+commit.1d4f565a.Emscripten.clang"
  },
  "schemaVersion": "3.0.2",
  "updatedAt": "2020-08-05T15:38:55.949Z",
  "devdoc": {
    "methods": {}
  },
  "userdoc": {
    "methods": {}
  }
}