{
  "contractName": "Census",
  "abi": [
    {
      "constant": true,
      "inputs": [],
      "name": "name",
      "outputs": [
        {
          "name": "",
          "type": "string"
        }
      ],
      "payable": false,
      "stateMutability": "view",
      "type": "function",
      "signature": "0x06fdde03"
    },
    {
      "constant": true,
      "inputs": [
        {
          "name": "",
          "type": "uint256"
        }
      ],
      "name": "households",
      "outputs": [
        {
          "name": "hid",
          "type": "uint256"
        }
      ],
      "payable": false,
      "stateMutability": "view",
      "type": "function",
      "signature": "0x45f86fa0"
    },
    {
      "constant": true,
      "inputs": [
        {
          "name": "",
          "type": "uint256"
        }
      ],
      "name": "Householdadded",
      "outputs": [
        {
          "name": "",
          "type": "bool"
        }
      ],
      "payable": false,
      "stateMutability": "view",
      "type": "function",
      "signature": "0x6e5bb531"
    },
    {
      "constant": true,
      "inputs": [],
      "name": "personCount",
      "outputs": [
        {
          "name": "",
          "type": "uint256"
        }
      ],
      "payable": false,
      "stateMutability": "view",
      "type": "function",
      "signature": "0x78495bf8"
    },
    {
      "constant": true,
      "inputs": [
        {
          "name": "",
          "type": "uint256"
        }
      ],
      "name": "persons",
      "outputs": [
        {
          "name": "id",
          "type": "uint256"
        },
        {
          "name": "name",
          "type": "string"
        },
        {
          "name": "photourl",
          "type": "string"
        },
        {
          "name": "role",
          "type": "string"
        },
        {
          "name": "race",
          "type": "string"
        },
        {
          "name": "country",
          "type": "string"
        },
        {
          "name": "householdID",
          "type": "uint256"
        },
        {
          "name": "alive",
          "type": "bool"
        }
      ],
      "payable": false,
      "stateMutability": "view",
      "type": "function",
      "signature": "0xa2f9eac6"
    },
    {
      "constant": true,
      "inputs": [],
      "name": "lasthouseholdID",
      "outputs": [
        {
          "name": "",
          "type": "uint256"
        }
      ],
      "payable": false,
      "stateMutability": "view",
      "type": "function",
      "signature": "0xc0991a37"
    },
    {
      "inputs": [],
      "payable": false,
      "stateMutability": "nonpayable",
      "type": "constructor",
      "signature": "constructor"
    },
    {
      "constant": false,
      "inputs": [
        {
          "name": "_name",
          "type": "string"
        },
        {
          "name": "_race",
          "type": "string"
        },
        {
          "name": "_photourl",
          "type": "string"
        },
        {
          "name": "_role",
          "type": "string"
        },
        {
          "name": "_country",
          "type": "string"
        },
        {
          "name": "_alive",
          "type": "bool"
        },
        {
          "name": "_householdID",
          "type": "uint256"
        }
      ],
      "name": "createPerson",
      "outputs": [],
      "payable": false,
      "stateMutability": "nonpayable",
      "type": "function",
      "signature": "0xa3b16bb8"
    },
    {
      "constant": false,
      "inputs": [
        {
          "name": "_name",
          "type": "string"
        },
        {
          "name": "_race",
          "type": "string"
        },
        {
          "name": "_photourl",
          "type": "string"
        },
        {
          "name": "_role",
          "type": "string"
        },
        {
          "name": "_country",
          "type": "string"
        },
        {
          "name": "_alive",
          "type": "bool"
        },
        {
          "name": "_householdID",
          "type": "uint256"
        }
      ],
      "name": "addmember",
      "outputs": [],
      "payable": false,
      "stateMutability": "nonpayable",
      "type": "function",
      "signature": "0x6bd948f5"
    },
    {
      "constant": true,
      "inputs": [
        {
          "name": "_householdID",
          "type": "uint256"
        }
      ],
      "name": "getmemberslenght",
      "outputs": [
        {
          "name": "",
          "type": "uint256"
        }
      ],
      "payable": false,
      "stateMutability": "view",
      "type": "function",
      "signature": "0x0349e115"
    },
    {
      "constant": true,
      "inputs": [
        {
          "name": "_householdID",
          "type": "uint256"
        },
        {
          "name": "_member",
          "type": "uint256"
        }
      ],
      "name": "getfamilymember",
      "outputs": [
        {
          "name": "",
          "type": "string"
        }
      ],
      "payable": false,
      "stateMutability": "view",
      "type": "function",
      "signature": "0x1a280ebd"
    },
    {
      "constant": false,
      "inputs": [],
      "name": "familysubmit",
      "outputs": [],
      "payable": false,
      "stateMutability": "nonpayable",
      "type": "function",
      "signature": "0x33f7f304"
    },
    {
      "constant": false,
      "inputs": [],
      "name": "gethousholdID",
      "outputs": [
        {
          "name": "",
          "type": "uint256"
        }
      ],
      "payable": false,
      "stateMutability": "nonpayable",
      "type": "function",
      "signature": "0x7e021005"
    }
  ],
  "bytecode": "0x6080604052600060015560006002553480156200001b57600080fd5b506040805190810160405280600781526020017f4443656e73757300000000000000000000000000000000000000000000000000815250600090805190602001906200006992919062000070565b506200011f565b828054600181600116156101000203166002900490600052602060002090601f016020900481019282601f10620000b357805160ff1916838001178555620000e4565b82800160010185558215620000e4579182015b82811115620000e3578251825591602001919060010190620000c6565b5b509050620000f39190620000f7565b5090565b6200011c91905b8082111562000118576000816000905550600101620000fe565b5090565b90565b611713806200012f6000396000f3fe6080604052600436106100ba576000357c0100000000000000000000000000000000000000000000000000000000900463ffffffff1680630349e115146100bf57806306fdde031461010e5780631a280ebd1461019e57806333f7f3041461025c57806345f86fa0146102735780636bd948f5146102c25780636e5bb531146105fc57806378495bf81461064f5780637e0210051461067a578063a2f9eac6146106a5578063a3b16bb814610922578063c0991a3714610c5c575b600080fd5b3480156100cb57600080fd5b506100f8600480360360208110156100e257600080fd5b8101908080359060200190929190505050610c87565b6040518082815260200191505060405180910390f35b34801561011a57600080fd5b50610123610caa565b6040518080602001828103825283818151815260200191508051906020019080838360005b83811015610163578082015181840152602081019050610148565b50505050905090810190601f1680156101905780820380516001836020036101000a031916815260200191505b509250505060405180910390f35b3480156101aa57600080fd5b506101e1600480360360408110156101c157600080fd5b810190808035906020019092919080359060200190929190505050610d48565b6040518080602001828103825283818151815260200191508051906020019080838360005b83811015610221578082015181840152602081019050610206565b50505050905090810190601f16801561024e5780820380516001836020036101000a031916815260200191505b509250505060405180910390f35b34801561026857600080fd5b50610271610e1f565b005b34801561027f57600080fd5b506102ac6004803603602081101561029657600080fd5b8101908080359060200190929190505050610e99565b6040518082815260200191505060405180910390f35b3480156102ce57600080fd5b506105fa600480360360e08110156102e557600080fd5b810190808035906020019064010000000081111561030257600080fd5b82018360208201111561031457600080fd5b8035906020019184600183028401116401000000008311171561033657600080fd5b91908080601f016020809104026020016040519081016040528093929190818152602001838380828437600081840152601f19601f8201169050808301925050505050505091929192908035906020019064010000000081111561039957600080fd5b8201836020820111156103ab57600080fd5b803590602001918460018302840111640100000000831117156103cd57600080fd5b91908080601f016020809104026020016040519081016040528093929190818152602001838380828437600081840152601f19601f8201169050808301925050505050505091929192908035906020019064010000000081111561043057600080fd5b82018360208201111561044257600080fd5b8035906020019184600183028401116401000000008311171561046457600080fd5b91908080601f016020809104026020016040519081016040528093929190818152602001838380828437600081840152601f19601f820116905080830192505050505050509192919290803590602001906401000000008111156104c757600080fd5b8201836020820111156104d957600080fd5b803590602001918460018302840111640100000000831117156104fb57600080fd5b91908080601f016020809104026020016040519081016040528093929190818152602001838380828437600081840152601f19601f8201169050808301925050505050505091929192908035906020019064010000000081111561055e57600080fd5b82018360208201111561057057600080fd5b8035906020019184600183028401116401000000008311171561059257600080fd5b91908080601f016020809104026020016040519081016040528093929190818152602001838380828437600081840152601f19601f82011690508083019250505050505050919291929080351515906020019092919080359060200190929190505050610eb7565b005b34801561060857600080fd5b506106356004803603602081101561061f57600080fd5b810190808035906020019092919050505061101a565b604051808215151515815260200191505060405180910390f35b34801561065b57600080fd5b5061066461104d565b6040518082815260200191505060405180910390f35b34801561068657600080fd5b5061068f611053565b6040518082815260200191505060405180910390f35b3480156106b157600080fd5b506106de600480360360208110156106c857600080fd5b81019080803590602001909291905050506110ee565b6040518089815260200180602001806020018060200180602001806020018881526020018715151515815260200186810386528d818151815260200191508051906020019080838360005b83811015610744578082015181840152602081019050610729565b50505050905090810190601f1680156107715780820380516001836020036101000a031916815260200191505b5086810385528c818151815260200191508051906020019080838360005b838110156107aa57808201518184015260208101905061078f565b50505050905090810190601f1680156107d75780820380516001836020036101000a031916815260200191505b5086810384528b818151815260200191508051906020019080838360005b838110156108105780820151818401526020810190506107f5565b50505050905090810190601f16801561083d5780820380516001836020036101000a031916815260200191505b5086810383528a818151815260200191508051906020019080838360005b8381101561087657808201518184015260208101905061085b565b50505050905090810190601f1680156108a35780820380516001836020036101000a031916815260200191505b50868103825289818151815260200191508051906020019080838360005b838110156108dc5780820151818401526020810190506108c1565b50505050905090810190601f1680156109095780820380516001836020036101000a031916815260200191505b509d505050505050505050505050505060405180910390f35b34801561092e57600080fd5b50610c5a600480360360e081101561094557600080fd5b810190808035906020019064010000000081111561096257600080fd5b82018360208201111561097457600080fd5b8035906020019184600183028401116401000000008311171561099657600080fd5b91908080601f016020809104026020016040519081016040528093929190818152602001838380828437600081840152601f19601f820116905080830192505050505050509192919290803590602001906401000000008111156109f957600080fd5b820183602082011115610a0b57600080fd5b80359060200191846001830284011164010000000083111715610a2d57600080fd5b91908080601f016020809104026020016040519081016040528093929190818152602001838380828437600081840152601f19601f82011690508083019250505050505050919291929080359060200190640100000000811115610a9057600080fd5b820183602082011115610aa257600080fd5b80359060200191846001830284011164010000000083111715610ac457600080fd5b91908080601f016020809104026020016040519081016040528093929190818152602001838380828437600081840152601f19601f82011690508083019250505050505050919291929080359060200190640100000000811115610b2757600080fd5b820183602082011115610b3957600080fd5b80359060200191846001830284011164010000000083111715610b5b57600080fd5b91908080601f016020809104026020016040519081016040528093929190818152602001838380828437600081840152601f19601f82011690508083019250505050505050919291929080359060200190640100000000811115610bbe57600080fd5b820183602082011115610bd057600080fd5b80359060200191846001830284011164010000000083111715610bf257600080fd5b91908080601f016020809104026020016040519081016040528093929190818152602001838380828437600081840152601f19601f8201169050808301925050505050505091929192908035151590602001909291908035906020019092919050505061143b565b005b348015610c6857600080fd5b50610c7161163c565b6040518082815260200191505060405180910390f35b600060046000838152602001908152602001600020600101805490509050919050565b60008054600181600116156101000203166002900480601f016020809104026020016040519081016040528092919081815260200182805460018160011615610100020316600290048015610d405780601f10610d1557610100808354040283529160200191610d40565b820191906000526020600020905b815481529060010190602001808311610d2357829003601f168201915b505050505081565b60606004600084815260200190815260200160002060010182815481101515610d6d57fe5b90600052602060002090600802016001018054600181600116156101000203166002900480601f016020809104026020016040519081016040528092919081815260200182805460018160011615610100020316600290048015610e125780601f10610de757610100808354040283529160200191610e12565b820191906000526020600020905b815481529060010190602001808311610df557829003601f168201915b5050505050905092915050565b600060046000600254815260200190815260200160002060010180549050111515610e4957600080fd5b60016005600254815481101515610e5c57fe5b90600052602060002090602091828204019190066101000a81548160ff021916908315150217905550600260008154809291906001019190505550565b60046020528060005260406000206000915090508060000154905081565b6001600081548092919060010191905055506004600082815260200190815260200160002060010161010060405190810160405280600154815260200189815260200187815260200186815260200188815260200185815260200183815260200184151581525090806001815401808255809150509060018203906000526020600020906008020160009091929091909150600082015181600001556020820151816001019080519060200190610f6f929190611642565b506040820151816002019080519060200190610f8c929190611642565b506060820151816003019080519060200190610fa9929190611642565b506080820151816004019080519060200190610fc6929190611642565b5060a0820151816005019080519060200190610fe3929190611642565b5060c0820151816006015560e08201518160070160006101000a81548160ff02191690831515021790555050505050505050505050565b60058181548110151561102957fe5b9060005260206000209060209182820401919006915054906101000a900460ff1681565b60015481565b600060056000908060018154018082558091505090600182039060005260206000209060209182820401919006909192909190916101000a81548160ff0219169083151502179055505060056002548154811015156110ae57fe5b90600052602060002090602091828204019190069054906101000a900460ff16156110e6576002600081548092919060010191905055505b600254905090565b6003602052806000526040600020600091509050806000015490806001018054600181600116156101000203166002900480601f0160208091040260200160405190810160405280929190818152602001828054600181600116156101000203166002900480156111a05780601f10611175576101008083540402835291602001916111a0565b820191906000526020600020905b81548152906001019060200180831161118357829003601f168201915b505050505090806002018054600181600116156101000203166002900480601f01602080910402602001604051908101604052809291908181526020018280546001816001161561010002031660029004801561123e5780601f106112135761010080835404028352916020019161123e565b820191906000526020600020905b81548152906001019060200180831161122157829003601f168201915b505050505090806003018054600181600116156101000203166002900480601f0160208091040260200160405190810160405280929190818152602001828054600181600116156101000203166002900480156112dc5780601f106112b1576101008083540402835291602001916112dc565b820191906000526020600020905b8154815290600101906020018083116112bf57829003601f168201915b505050505090806004018054600181600116156101000203166002900480601f01602080910402602001604051908101604052809291908181526020018280546001816001161561010002031660029004801561137a5780601f1061134f5761010080835404028352916020019161137a565b820191906000526020600020905b81548152906001019060200180831161135d57829003601f168201915b505050505090806005018054600181600116156101000203166002900480601f0160208091040260200160405190810160405280929190818152602001828054600181600116156101000203166002900480156114185780601f106113ed57610100808354040283529160200191611418565b820191906000526020600020905b8154815290600101906020018083116113fb57829003601f168201915b5050505050908060060154908060070160009054906101000a900460ff16905088565b60056000908060018154018082558091505090600182039060005260206000209060209182820401919006909192909190916101000a81548160ff0219169083151502179055505060058181548110151561149257fe5b90600052602060002090602091828204019190069054906101000a900460ff1615156115055760016005828154811015156114c957fe5b90600052602060002090602091828204019190066101000a81548160ff0219169083151502179055506002600081548092919060010191905055505b600160008154809291906001019190505550610100604051908101604052806001548152602001888152602001868152602001858152602001878152602001848152602001828152602001831515815250600360006001548152602001908152602001600020600082015181600001556020820151816001019080519060200190611591929190611642565b5060408201518160020190805190602001906115ae929190611642565b5060608201518160030190805190602001906115cb929190611642565b5060808201518160040190805190602001906115e8929190611642565b5060a0820151816005019080519060200190611605929190611642565b5060c0820151816006015560e08201518160070160006101000a81548160ff02191690831515021790555090505050505050505050565b60025481565b828054600181600116156101000203166002900490600052602060002090601f016020900481019282601f1061168357805160ff19168380011785556116b1565b828001600101855582156116b1579182015b828111156116b0578251825591602001919060010190611695565b5b5090506116be91906116c2565b5090565b6116e491905b808211156116e05760008160009055506001016116c8565b5090565b9056fea165627a7a72305820184e2d50c0aa156f6f7a5349a4be0dcc191b230099cfec2d9af24e4a6a7635780029",
  "source": "pragma solidity ^0.5.0;\n\ncontract Census {\n    string public name;\n    uint public personCount = 0;\n    uint public lasthouseholdID = 0;\n    \n\n    mapping(uint => Person) public persons;\n    mapping(uint => Household) public households;\n\n    struct Person {\n        uint id;\n        string name;\n        string photourl;\n        \n        string role;\n        string race;\n        string country;\n        uint householdID;\n        bool alive;\n    }\n    struct Household {\n        uint hid;\n        Person[] members;\n \n    }\n\n\n   bool[] public Householdadded;\n\n\n\n    constructor() public {\n        name = \"DCensus\";\n    }\n\n      function createPerson(string memory _name, string memory _race, string memory _photourl,string memory _role, string memory _country, bool _alive, uint _householdID) public {\n        // Require a valid photo\n        // require(bytes(_photourl).length > 0);\n        Householdadded.push(false);\n        if (!Householdadded[_householdID]){\n    \n           Householdadded[_householdID] = true ;\n        lasthouseholdID ++;\n         }\n        \n        // Increment product count\n        \n        personCount ++;\n        // Create the product\n        persons[personCount] = Person(personCount, _name, _photourl, _role, _race, _country, _householdID, _alive);\n    //    households[_householdID].members.push = \n        // Trigger an event\n        //emit ProductCreated(productCount, _Persons, _race, _country);\n    }\n        \n     function addmember(string memory _name, string memory _race, string memory _photourl,string memory _role, string memory _country, bool _alive, uint _householdID) public {\n        // Require a valid photo\n        \n        // require(bytes(_photourl).length > 0);\n\n     \n        // Increment product count\n        personCount ++;\n        // Create the product\n        households[_householdID].members.push(Person(personCount, _name, _photourl, _role, _race, _country,_householdID, _alive));\n        \n        // Trigger an event\n        //emit ProductCreated(productCount, _Persons, _race, _country);\n    }\n    function getmemberslenght(uint _householdID) view public returns (uint) {\n        return households[_householdID].members.length;\n    }\n    function getfamilymember(uint _householdID, uint _member) view public returns (string memory) {\n        return households[_householdID].members[_member].name;\n    }\nfunction familysubmit() public {\n    require(households[lasthouseholdID].members.length > 0);\nHouseholdadded[lasthouseholdID] = true ;\nlasthouseholdID ++;\n} \nfunction gethousholdID() public returns(uint) {\n            Householdadded.push(false);\n        if (Householdadded[lasthouseholdID]){\n    lasthouseholdID ++;\n          }\n           return lasthouseholdID;\n}\n}\n",
  "sourcePath": "C:/Users/m/Documents/GitHub/DCensus/src/contracts/Census.sol",
  "compiler": {
    "name": "solc",
    "version": "0.5.0+commit.1d4f565a.Emscripten.clang"
  },
  "schemaVersion": "3.0.2",
  "updatedAt": "2020-08-06T03:09:20.328Z",
  "devdoc": {
    "methods": {}
  },
  "userdoc": {
    "methods": {}
  }
}