{
  "contractName": "Census",
  "abi": [
    {
      "constant": true,
      "inputs": [],
      "name": "name",
      "outputs": [
        {
          "name": "",
          "type": "string"
        }
      ],
      "payable": false,
      "stateMutability": "view",
      "type": "function",
      "signature": "0x06fdde03"
    },
    {
      "constant": true,
      "inputs": [
        {
          "name": "",
          "type": "uint256"
        }
      ],
      "name": "households",
      "outputs": [
        {
          "name": "hid",
          "type": "uint256"
        }
      ],
      "payable": false,
      "stateMutability": "view",
      "type": "function",
      "signature": "0x45f86fa0"
    },
    {
      "constant": true,
      "inputs": [
        {
          "name": "",
          "type": "uint256"
        }
      ],
      "name": "Householdadded",
      "outputs": [
        {
          "name": "",
          "type": "bool"
        }
      ],
      "payable": false,
      "stateMutability": "view",
      "type": "function",
      "signature": "0x6e5bb531"
    },
    {
      "constant": true,
      "inputs": [],
      "name": "personCount",
      "outputs": [
        {
          "name": "",
          "type": "uint256"
        }
      ],
      "payable": false,
      "stateMutability": "view",
      "type": "function",
      "signature": "0x78495bf8"
    },
    {
      "constant": true,
      "inputs": [
        {
          "name": "",
          "type": "uint256"
        }
      ],
      "name": "persons",
      "outputs": [
        {
          "name": "id",
          "type": "uint256"
        },
        {
          "name": "name",
          "type": "string"
        },
        {
          "name": "photourl",
          "type": "string"
        },
        {
          "name": "role",
          "type": "string"
        },
        {
          "name": "race",
          "type": "string"
        },
        {
          "name": "country",
          "type": "string"
        },
        {
          "name": "householdID",
          "type": "uint256"
        },
        {
          "name": "alive",
          "type": "bool"
        }
      ],
      "payable": false,
      "stateMutability": "view",
      "type": "function",
      "signature": "0xa2f9eac6"
    },
    {
      "constant": true,
      "inputs": [],
      "name": "lasthouseholdID",
      "outputs": [
        {
          "name": "",
          "type": "uint256"
        }
      ],
      "payable": false,
      "stateMutability": "view",
      "type": "function",
      "signature": "0xc0991a37"
    },
    {
      "inputs": [],
      "payable": false,
      "stateMutability": "nonpayable",
      "type": "constructor",
      "signature": "constructor"
    },
    {
      "constant": false,
      "inputs": [
        {
          "name": "_name",
          "type": "string"
        },
        {
          "name": "_race",
          "type": "string"
        },
        {
          "name": "_photourl",
          "type": "string"
        },
        {
          "name": "_role",
          "type": "string"
        },
        {
          "name": "_country",
          "type": "string"
        },
        {
          "name": "_alive",
          "type": "bool"
        },
        {
          "name": "_householdID",
          "type": "uint256"
        }
      ],
      "name": "createPerson",
      "outputs": [],
      "payable": false,
      "stateMutability": "nonpayable",
      "type": "function",
      "signature": "0xa3b16bb8"
    },
    {
      "constant": false,
      "inputs": [
        {
          "name": "_name",
          "type": "string"
        },
        {
          "name": "_race",
          "type": "string"
        },
        {
          "name": "_photourl",
          "type": "string"
        },
        {
          "name": "_role",
          "type": "string"
        },
        {
          "name": "_country",
          "type": "string"
        },
        {
          "name": "_alive",
          "type": "bool"
        },
        {
          "name": "_householdID",
          "type": "uint256"
        }
      ],
      "name": "addmember",
      "outputs": [],
      "payable": false,
      "stateMutability": "nonpayable",
      "type": "function",
      "signature": "0x6bd948f5"
    },
    {
      "constant": true,
      "inputs": [
        {
          "name": "_householdID",
          "type": "uint256"
        }
      ],
      "name": "getmemberslenght",
      "outputs": [
        {
          "name": "",
          "type": "uint256"
        }
      ],
      "payable": false,
      "stateMutability": "view",
      "type": "function",
      "signature": "0x0349e115"
    },
    {
      "constant": true,
      "inputs": [
        {
          "name": "_householdID",
          "type": "uint256"
        },
        {
          "name": "_member",
          "type": "uint256"
        }
      ],
      "name": "getfamilymember",
      "outputs": [
        {
          "name": "",
          "type": "string"
        }
      ],
      "payable": false,
      "stateMutability": "view",
      "type": "function",
      "signature": "0x1a280ebd"
    },
    {
      "constant": false,
      "inputs": [],
      "name": "gethousholdID",
      "outputs": [
        {
          "name": "",
          "type": "uint256"
        }
      ],
      "payable": false,
      "stateMutability": "nonpayable",
      "type": "function",
      "signature": "0x7e021005"
    }
  ],
  "bytecode": "0x6080604052600060015560006002553480156200001b57600080fd5b506040805190810160405280600781526020017f4443656e73757300000000000000000000000000000000000000000000000000815250600090805190602001906200006992919062000070565b506200011f565b828054600181600116156101000203166002900490600052602060002090601f016020900481019282601f10620000b357805160ff1916838001178555620000e4565b82800160010185558215620000e4579182015b82811115620000e3578251825591602001919060010190620000c6565b5b509050620000f39190620000f7565b5090565b6200011c91905b8082111562000118576000816000905550600101620000fe565b5090565b90565b611677806200012f6000396000f3fe6080604052600436106100af576000357c0100000000000000000000000000000000000000000000000000000000900463ffffffff1680630349e115146100b457806306fdde03146101035780631a280ebd1461019357806345f86fa0146102515780636bd948f5146102a05780636e5bb531146105da57806378495bf81461062d5780637e02100514610658578063a2f9eac614610683578063a3b16bb814610900578063c0991a3714610c3a575b600080fd5b3480156100c057600080fd5b506100ed600480360360208110156100d757600080fd5b8101908080359060200190929190505050610c65565b6040518082815260200191505060405180910390f35b34801561010f57600080fd5b50610118610c88565b6040518080602001828103825283818151815260200191508051906020019080838360005b8381101561015857808201518184015260208101905061013d565b50505050905090810190601f1680156101855780820380516001836020036101000a031916815260200191505b509250505060405180910390f35b34801561019f57600080fd5b506101d6600480360360408110156101b657600080fd5b810190808035906020019092919080359060200190929190505050610d26565b6040518080602001828103825283818151815260200191508051906020019080838360005b838110156102165780820151818401526020810190506101fb565b50505050905090810190601f1680156102435780820380516001836020036101000a031916815260200191505b509250505060405180910390f35b34801561025d57600080fd5b5061028a6004803603602081101561027457600080fd5b8101908080359060200190929190505050610dfd565b6040518082815260200191505060405180910390f35b3480156102ac57600080fd5b506105d8600480360360e08110156102c357600080fd5b81019080803590602001906401000000008111156102e057600080fd5b8201836020820111156102f257600080fd5b8035906020019184600183028401116401000000008311171561031457600080fd5b91908080601f016020809104026020016040519081016040528093929190818152602001838380828437600081840152601f19601f8201169050808301925050505050505091929192908035906020019064010000000081111561037757600080fd5b82018360208201111561038957600080fd5b803590602001918460018302840111640100000000831117156103ab57600080fd5b91908080601f016020809104026020016040519081016040528093929190818152602001838380828437600081840152601f19601f8201169050808301925050505050505091929192908035906020019064010000000081111561040e57600080fd5b82018360208201111561042057600080fd5b8035906020019184600183028401116401000000008311171561044257600080fd5b91908080601f016020809104026020016040519081016040528093929190818152602001838380828437600081840152601f19601f820116905080830192505050505050509192919290803590602001906401000000008111156104a557600080fd5b8201836020820111156104b757600080fd5b803590602001918460018302840111640100000000831117156104d957600080fd5b91908080601f016020809104026020016040519081016040528093929190818152602001838380828437600081840152601f19601f8201169050808301925050505050505091929192908035906020019064010000000081111561053c57600080fd5b82018360208201111561054e57600080fd5b8035906020019184600183028401116401000000008311171561057057600080fd5b91908080601f016020809104026020016040519081016040528093929190818152602001838380828437600081840152601f19601f82011690508083019250505050505050919291929080351515906020019092919080359060200190929190505050610e1b565b005b3480156105e657600080fd5b50610613600480360360208110156105fd57600080fd5b8101908080359060200190929190505050610f7e565b604051808215151515815260200191505060405180910390f35b34801561063957600080fd5b50610642610fb1565b6040518082815260200191505060405180910390f35b34801561066457600080fd5b5061066d610fb7565b6040518082815260200191505060405180910390f35b34801561068f57600080fd5b506106bc600480360360208110156106a657600080fd5b8101908080359060200190929190505050611052565b6040518089815260200180602001806020018060200180602001806020018881526020018715151515815260200186810386528d818151815260200191508051906020019080838360005b83811015610722578082015181840152602081019050610707565b50505050905090810190601f16801561074f5780820380516001836020036101000a031916815260200191505b5086810385528c818151815260200191508051906020019080838360005b8381101561078857808201518184015260208101905061076d565b50505050905090810190601f1680156107b55780820380516001836020036101000a031916815260200191505b5086810384528b818151815260200191508051906020019080838360005b838110156107ee5780820151818401526020810190506107d3565b50505050905090810190601f16801561081b5780820380516001836020036101000a031916815260200191505b5086810383528a818151815260200191508051906020019080838360005b83811015610854578082015181840152602081019050610839565b50505050905090810190601f1680156108815780820380516001836020036101000a031916815260200191505b50868103825289818151815260200191508051906020019080838360005b838110156108ba57808201518184015260208101905061089f565b50505050905090810190601f1680156108e75780820380516001836020036101000a031916815260200191505b509d505050505050505050505050505060405180910390f35b34801561090c57600080fd5b50610c38600480360360e081101561092357600080fd5b810190808035906020019064010000000081111561094057600080fd5b82018360208201111561095257600080fd5b8035906020019184600183028401116401000000008311171561097457600080fd5b91908080601f016020809104026020016040519081016040528093929190818152602001838380828437600081840152601f19601f820116905080830192505050505050509192919290803590602001906401000000008111156109d757600080fd5b8201836020820111156109e957600080fd5b80359060200191846001830284011164010000000083111715610a0b57600080fd5b91908080601f016020809104026020016040519081016040528093929190818152602001838380828437600081840152601f19601f82011690508083019250505050505050919291929080359060200190640100000000811115610a6e57600080fd5b820183602082011115610a8057600080fd5b80359060200191846001830284011164010000000083111715610aa257600080fd5b91908080601f016020809104026020016040519081016040528093929190818152602001838380828437600081840152601f19601f82011690508083019250505050505050919291929080359060200190640100000000811115610b0557600080fd5b820183602082011115610b1757600080fd5b80359060200191846001830284011164010000000083111715610b3957600080fd5b91908080601f016020809104026020016040519081016040528093929190818152602001838380828437600081840152601f19601f82011690508083019250505050505050919291929080359060200190640100000000811115610b9c57600080fd5b820183602082011115610bae57600080fd5b80359060200191846001830284011164010000000083111715610bd057600080fd5b91908080601f016020809104026020016040519081016040528093929190818152602001838380828437600081840152601f19601f8201169050808301925050505050505091929192908035151590602001909291908035906020019092919050505061139f565b005b348015610c4657600080fd5b50610c4f6115a0565b6040518082815260200191505060405180910390f35b600060046000838152602001908152602001600020600101805490509050919050565b60008054600181600116156101000203166002900480601f016020809104026020016040519081016040528092919081815260200182805460018160011615610100020316600290048015610d1e5780601f10610cf357610100808354040283529160200191610d1e565b820191906000526020600020905b815481529060010190602001808311610d0157829003601f168201915b505050505081565b60606004600084815260200190815260200160002060010182815481101515610d4b57fe5b90600052602060002090600802016001018054600181600116156101000203166002900480601f016020809104026020016040519081016040528092919081815260200182805460018160011615610100020316600290048015610df05780601f10610dc557610100808354040283529160200191610df0565b820191906000526020600020905b815481529060010190602001808311610dd357829003601f168201915b5050505050905092915050565b60046020528060005260406000206000915090508060000154905081565b6001600081548092919060010191905055506004600082815260200190815260200160002060010161010060405190810160405280600154815260200189815260200187815260200186815260200188815260200185815260200183815260200184151581525090806001815401808255809150509060018203906000526020600020906008020160009091929091909150600082015181600001556020820151816001019080519060200190610ed39291906115a6565b506040820151816002019080519060200190610ef09291906115a6565b506060820151816003019080519060200190610f0d9291906115a6565b506080820151816004019080519060200190610f2a9291906115a6565b5060a0820151816005019080519060200190610f479291906115a6565b5060c0820151816006015560e08201518160070160006101000a81548160ff02191690831515021790555050505050505050505050565b600581815481101515610f8d57fe5b9060005260206000209060209182820401919006915054906101000a900460ff1681565b60015481565b600060056000908060018154018082558091505090600182039060005260206000209060209182820401919006909192909190916101000a81548160ff02191690831515021790555050600560025481548110151561101257fe5b90600052602060002090602091828204019190069054906101000a900460ff161561104a576002600081548092919060010191905055505b600254905090565b6003602052806000526040600020600091509050806000015490806001018054600181600116156101000203166002900480601f0160208091040260200160405190810160405280929190818152602001828054600181600116156101000203166002900480156111045780601f106110d957610100808354040283529160200191611104565b820191906000526020600020905b8154815290600101906020018083116110e757829003601f168201915b505050505090806002018054600181600116156101000203166002900480601f0160208091040260200160405190810160405280929190818152602001828054600181600116156101000203166002900480156111a25780601f10611177576101008083540402835291602001916111a2565b820191906000526020600020905b81548152906001019060200180831161118557829003601f168201915b505050505090806003018054600181600116156101000203166002900480601f0160208091040260200160405190810160405280929190818152602001828054600181600116156101000203166002900480156112405780601f1061121557610100808354040283529160200191611240565b820191906000526020600020905b81548152906001019060200180831161122357829003601f168201915b505050505090806004018054600181600116156101000203166002900480601f0160208091040260200160405190810160405280929190818152602001828054600181600116156101000203166002900480156112de5780601f106112b3576101008083540402835291602001916112de565b820191906000526020600020905b8154815290600101906020018083116112c157829003601f168201915b505050505090806005018054600181600116156101000203166002900480601f01602080910402602001604051908101604052809291908181526020018280546001816001161561010002031660029004801561137c5780601f106113515761010080835404028352916020019161137c565b820191906000526020600020905b81548152906001019060200180831161135f57829003601f168201915b5050505050908060060154908060070160009054906101000a900460ff16905088565b60056000908060018154018082558091505090600182039060005260206000209060209182820401919006909192909190916101000a81548160ff021916908315150217905550506005818154811015156113f657fe5b90600052602060002090602091828204019190069054906101000a900460ff16151561146957600160058281548110151561142d57fe5b90600052602060002090602091828204019190066101000a81548160ff0219169083151502179055506002600081548092919060010191905055505b6001600081548092919060010191905055506101006040519081016040528060015481526020018881526020018681526020018581526020018781526020018481526020018281526020018315158152506003600060015481526020019081526020016000206000820151816000015560208201518160010190805190602001906114f59291906115a6565b5060408201518160020190805190602001906115129291906115a6565b50606082015181600301908051906020019061152f9291906115a6565b50608082015181600401908051906020019061154c9291906115a6565b5060a08201518160050190805190602001906115699291906115a6565b5060c0820151816006015560e08201518160070160006101000a81548160ff02191690831515021790555090505050505050505050565b60025481565b828054600181600116156101000203166002900490600052602060002090601f016020900481019282601f106115e757805160ff1916838001178555611615565b82800160010185558215611615579182015b828111156116145782518255916020019190600101906115f9565b5b5090506116229190611626565b5090565b61164891905b8082111561164457600081600090555060010161162c565b5090565b9056fea165627a7a7230582027779f79e38b5a5edda8b172f2a377c847cbfbf0e8a79d45a30eef4001118fc40029",
  "source": "pragma solidity ^0.5.0;\n\n\ncontract Census {\n    string public name;\n    uint public personCount = 0;\n    uint public lasthouseholdID = 0;\n    \n\n    mapping(uint => Person) public persons;\n    mapping(uint => Household) public households;\n\n    struct Person {\n        uint id;\n        string name;\n        string photourl;\n        \n        string role;\n        string race;\n        string country;\n        uint householdID;\n        bool alive;\n    }\n    struct Household {\n        uint hid;\n        Person[] members;\n \n    }\n\n\n   bool[] public Householdadded;\n\n\n\n    constructor() public {\n        name = \"DCensus\";\n    }\n\n      function createPerson(string memory _name, string memory _race, string memory _photourl,string memory _role, string memory _country, bool _alive, uint _householdID) public {\n        // Require a valid photo\n        // require(bytes(_photourl).length > 0);\n        Householdadded.push(false);\n        if (!Householdadded[_householdID]){\n    \n           Householdadded[_householdID] = true ;\n        lasthouseholdID ++;\n         }\n        \n        // Increment product count\n        \n        personCount ++;\n        // Create the product\n        persons[personCount] = Person(personCount, _name, _photourl, _role, _race, _country, _householdID, _alive);\n    //    households[_householdID].members.push = \n        // Trigger an event\n        //emit ProductCreated(productCount, _Persons, _race, _country);\n    }\n        \n     function addmember(string memory _name, string memory _race, string memory _photourl,string memory _role, string memory _country, bool _alive, uint _householdID) public {\n        // Require a valid photo\n        \n        // require(bytes(_photourl).length > 0);\n\n     \n        // Increment product count\n        personCount ++;\n        // Create the product\n        households[_householdID].members.push(Person(personCount, _name, _photourl, _role, _race, _country,_householdID, _alive));\n        \n        // Trigger an event\n        //emit ProductCreated(productCount, _Persons, _race, _country);\n    }\n    function getmemberslenght(uint _householdID) view public returns (uint) {\n        return households[_householdID].members.length;\n    }\n    function getfamilymember(uint _householdID, uint _member) view public returns (string memory) {\n        return households[_householdID].members[_member].name;\n    }\n// function familysubmit() public {\n//     require(households[lasthouseholdID].members.length > 0);\n// Householdadded[lasthouseholdID] = true ;\n// lasthouseholdID ++;\n// } \nfunction gethousholdID() public returns(uint) {\n            Householdadded.push(false);\n        if (Householdadded[lasthouseholdID]){\n    lasthouseholdID ++;\n          }\n           return lasthouseholdID;\n}\n}\n",
  "sourcePath": "C:/Users/m/Documents/GitHub/DCensus/src/contracts/Census.sol",
  "compiler": {
    "name": "solc",
    "version": "0.5.0+commit.1d4f565a.Emscripten.clang"
  },
  "schemaVersion": "3.0.2",
  "updatedAt": "2020-08-06T04:53:08.175Z",
  "devdoc": {
    "methods": {}
  },
  "userdoc": {
    "methods": {}
  }
}