{
  "contractName": "Marketplace",
  "abi": [
    {
      "constant": true,
      "inputs": [],
      "name": "name",
      "outputs": [
        {
          "name": "",
          "type": "string"
        }
      ],
      "payable": false,
      "stateMutability": "view",
      "type": "function"
    },
    {
      "constant": true,
      "inputs": [
        {
          "name": "",
          "type": "uint256"
        }
      ],
      "name": "users",
      "outputs": [
        {
          "name": "id",
          "type": "uint256"
        },
        {
          "name": "name",
          "type": "string"
        },
        {
          "name": "title",
          "type": "string"
        },
        {
          "name": "commission",
          "type": "uint256"
        },
        {
          "name": "owner",
          "type": "address"
        },
        {
          "name": "commissionPaid",
          "type": "bool"
        }
      ],
      "payable": false,
      "stateMutability": "view",
      "type": "function"
    },
    {
      "constant": true,
      "inputs": [
        {
          "name": "",
          "type": "uint256"
        }
      ],
      "name": "agents",
      "outputs": [
        {
          "name": "id",
          "type": "uint256"
        },
        {
          "name": "name",
          "type": "string"
        },
        {
          "name": "title",
          "type": "string"
        },
        {
          "name": "commission",
          "type": "uint256"
        },
        {
          "name": "owner",
          "type": "address"
        },
        {
          "name": "commissionPaid",
          "type": "bool"
        }
      ],
      "payable": false,
      "stateMutability": "view",
      "type": "function"
    },
    {
      "constant": true,
      "inputs": [
        {
          "name": "",
          "type": "uint256"
        }
      ],
      "name": "products",
      "outputs": [
        {
          "name": "id",
          "type": "uint256"
        },
        {
          "name": "name",
          "type": "string"
        },
        {
          "name": "price",
          "type": "uint256"
        },
        {
          "name": "owner",
          "type": "address"
        },
        {
          "name": "purchased",
          "type": "bool"
        },
        {
          "name": "available",
          "type": "bool"
        }
      ],
      "payable": false,
      "stateMutability": "view",
      "type": "function"
    },
    {
      "constant": true,
      "inputs": [
        {
          "name": "",
          "type": "uint256"
        }
      ],
      "name": "policies",
      "outputs": [
        {
          "name": "id",
          "type": "uint256"
        },
        {
          "name": "policyNumber",
          "type": "string"
        },
        {
          "name": "owner",
          "type": "address"
        },
        {
          "name": "price",
          "type": "uint256"
        },
        {
          "name": "commission",
          "type": "uint256"
        },
        {
          "name": "active",
          "type": "bool"
        },
        {
          "name": "purchased",
          "type": "bool"
        },
        {
          "name": "renewable",
          "type": "bool"
        }
      ],
      "payable": false,
      "stateMutability": "view",
      "type": "function"
    },
    {
      "constant": true,
      "inputs": [],
      "name": "policyCount",
      "outputs": [
        {
          "name": "",
          "type": "uint256"
        }
      ],
      "payable": false,
      "stateMutability": "view",
      "type": "function"
    },
    {
      "constant": true,
      "inputs": [],
      "name": "productCount",
      "outputs": [
        {
          "name": "",
          "type": "uint256"
        }
      ],
      "payable": false,
      "stateMutability": "view",
      "type": "function"
    },
    {
      "inputs": [],
      "payable": false,
      "stateMutability": "nonpayable",
      "type": "constructor"
    },
    {
      "anonymous": false,
      "inputs": [
        {
          "indexed": false,
          "name": "id",
          "type": "uint256"
        },
        {
          "indexed": false,
          "name": "name",
          "type": "string"
        },
        {
          "indexed": false,
          "name": "price",
          "type": "uint256"
        },
        {
          "indexed": false,
          "name": "owner",
          "type": "address"
        },
        {
          "indexed": false,
          "name": "purchased",
          "type": "bool"
        }
      ],
      "name": "PolicyCreated",
      "type": "event"
    },
    {
      "anonymous": false,
      "inputs": [
        {
          "indexed": false,
          "name": "id",
          "type": "uint256"
        },
        {
          "indexed": false,
          "name": "name",
          "type": "string"
        },
        {
          "indexed": false,
          "name": "price",
          "type": "uint256"
        },
        {
          "indexed": false,
          "name": "owner",
          "type": "address"
        },
        {
          "indexed": false,
          "name": "purchased",
          "type": "bool"
        }
      ],
      "name": "ProductCreated",
      "type": "event"
    },
    {
      "anonymous": false,
      "inputs": [
        {
          "indexed": false,
          "name": "id",
          "type": "uint256"
        },
        {
          "indexed": false,
          "name": "name",
          "type": "string"
        },
        {
          "indexed": false,
          "name": "price",
          "type": "uint256"
        },
        {
          "indexed": false,
          "name": "owner",
          "type": "address"
        },
        {
          "indexed": false,
          "name": "purchased",
          "type": "bool"
        }
      ],
      "name": "ProductPurchased",
      "type": "event"
    },
    {
      "anonymous": false,
      "inputs": [
        {
          "indexed": false,
          "name": "id",
          "type": "uint256"
        },
        {
          "indexed": false,
          "name": "name",
          "type": "string"
        },
        {
          "indexed": false,
          "name": "price",
          "type": "uint256"
        },
        {
          "indexed": false,
          "name": "owner",
          "type": "address"
        },
        {
          "indexed": false,
          "name": "purchased",
          "type": "bool"
        }
      ],
      "name": "PolicyPurchased",
      "type": "event"
    },
    {
      "constant": false,
      "inputs": [
        {
          "name": "_policyNumber",
          "type": "string"
        },
        {
          "name": "_price",
          "type": "uint256"
        },
        {
          "name": "_commission",
          "type": "uint256"
        }
      ],
      "name": "createPolicy",
      "outputs": [],
      "payable": false,
      "stateMutability": "nonpayable",
      "type": "function"
    },
    {
      "constant": false,
      "inputs": [
        {
          "name": "_name",
          "type": "string"
        },
        {
          "name": "_price",
          "type": "uint256"
        }
      ],
      "name": "createProduct",
      "outputs": [],
      "payable": false,
      "stateMutability": "nonpayable",
      "type": "function"
    },
    {
      "constant": false,
      "inputs": [
        {
          "name": "_id",
          "type": "uint256"
        }
      ],
      "name": "purchasePolicy",
      "outputs": [],
      "payable": true,
      "stateMutability": "payable",
      "type": "function"
    },
    {
      "constant": false,
      "inputs": [
        {
          "name": "_id",
          "type": "uint256"
        }
      ],
      "name": "purchaseProduct",
      "outputs": [],
      "payable": true,
      "stateMutability": "payable",
      "type": "function"
    }
  ],
  "bytecode": "0x6080604052600060015560006002553480156200001b57600080fd5b506040518060400160405280601581526020017f496e737572654e4554204d61726b6574706c6163650000000000000000000000815250600090805190602001906200006992919062000070565b506200011f565b828054600181600116156101000203166002900490600052602060002090601f016020900481019282601f10620000b357805160ff1916838001178555620000e4565b82800160010185558215620000e4579182015b82811115620000e3578251825591602001919060010190620000c6565b5b509050620000f39190620000f7565b5090565b6200011c91905b8082111562000118576000816000905550600101620000fe565b5090565b90565b612350806200012f6000396000f3fe60806040526004361061009c5760003560e01c8063c1260c9a11610064578063c1260c9a14610542578063d3e8948314610570578063de54d4291461068d578063e0f6ef87146106b8578063e9300c6c146106e3578063e93b2a34146107b55761009c565b806306fdde03146100a1578063365b98b21461013157806338e76a031461029d578063513856c8146102cb5780637acc0b2014610437575b600080fd5b3480156100ad57600080fd5b506100b6610891565b6040518080602001828103825283818151815260200191508051906020019080838360005b838110156100f65780820151818401526020810190506100db565b50505050905090810190601f1680156101235780820380516001836020036101000a031916815260200191505b509250505060405180910390f35b34801561013d57600080fd5b5061016a6004803603602081101561015457600080fd5b810190808035906020019092919050505061092f565b6040518087815260200180602001806020018681526020018573ffffffffffffffffffffffffffffffffffffffff1673ffffffffffffffffffffffffffffffffffffffff16815260200184151515158152602001838103835288818151815260200191508051906020019080838360005b838110156101f65780820151818401526020810190506101db565b50505050905090810190601f1680156102235780820380516001836020036101000a031916815260200191505b50838103825287818151815260200191508051906020019080838360005b8381101561025c578082015181840152602081019050610241565b50505050905090810190601f1680156102895780820380516001836020036101000a031916815260200191505b509850505050505050505060405180910390f35b6102c9600480360360208110156102b357600080fd5b8101908080359060200190929190505050610ac8565b005b3480156102d757600080fd5b50610304600480360360208110156102ee57600080fd5b81019080803590602001909291905050506110c7565b6040518087815260200180602001806020018681526020018573ffffffffffffffffffffffffffffffffffffffff1673ffffffffffffffffffffffffffffffffffffffff16815260200184151515158152602001838103835288818151815260200191508051906020019080838360005b83811015610390578082015181840152602081019050610375565b50505050905090810190601f1680156103bd5780820380516001836020036101000a031916815260200191505b50838103825287818151815260200191508051906020019080838360005b838110156103f65780820151818401526020810190506103db565b50505050905090810190601f1680156104235780820380516001836020036101000a031916815260200191505b509850505050505050505060405180910390f35b34801561044357600080fd5b506104706004803603602081101561045a57600080fd5b8101908080359060200190929190505050611260565b60405180878152602001806020018681526020018573ffffffffffffffffffffffffffffffffffffffff1673ffffffffffffffffffffffffffffffffffffffff1681526020018415151515815260200183151515158152602001828103825287818151815260200191508051906020019080838360005b838110156105025780820151818401526020810190506104e7565b50505050905090810190601f16801561052f5780820380516001836020036101000a031916815260200191505b5097505050505050505060405180910390f35b61056e6004803603602081101561055857600080fd5b810190808035906020019092919050505061136e565b005b34801561057c57600080fd5b506105a96004803603602081101561059357600080fd5b8101908080359060200190929190505050611a46565b60405180898152602001806020018873ffffffffffffffffffffffffffffffffffffffff1673ffffffffffffffffffffffffffffffffffffffff168152602001878152602001868152602001851515151581526020018415151515815260200183151515158152602001828103825289818151815260200191508051906020019080838360005b8381101561064b578082015181840152602081019050610630565b50505050905090810190601f1680156106785780820380516001836020036101000a031916815260200191505b50995050505050505050505060405180910390f35b34801561069957600080fd5b506106a2611b6d565b6040518082815260200191505060405180910390f35b3480156106c457600080fd5b506106cd611b73565b6040518082815260200191505060405180910390f35b3480156106ef57600080fd5b506107b36004803603604081101561070657600080fd5b810190808035906020019064010000000081111561072357600080fd5b82018360208201111561073557600080fd5b8035906020019184600183028401116401000000008311171561075757600080fd5b91908080601f016020809104026020016040519081016040528093929190818152602001838380828437600081840152601f19601f82011690508083019250505050505050919291929080359060200190929190505050611b79565b005b3480156107c157600080fd5b5061088f600480360360608110156107d857600080fd5b81019080803590602001906401000000008111156107f557600080fd5b82018360208201111561080757600080fd5b8035906020019184600183028401116401000000008311171561082957600080fd5b91908080601f016020809104026020016040519081016040528093929190818152602001838380828437600081840152601f19601f8201169050808301925050505050505091929192908035906020019092919080359060200190929190505050611e86565b005b60008054600181600116156101000203166002900480601f0160208091040260200160405190810160405280929190818152602001828054600181600116156101000203166002900480156109275780601f106108fc57610100808354040283529160200191610927565b820191906000526020600020905b81548152906001019060200180831161090a57829003601f168201915b505050505081565b6005602052806000526040600020600091509050806000015490806001018054600181600116156101000203166002900480601f0160208091040260200160405190810160405280929190818152602001828054600181600116156101000203166002900480156109e15780601f106109b6576101008083540402835291602001916109e1565b820191906000526020600020905b8154815290600101906020018083116109c457829003601f168201915b505050505090806002018054600181600116156101000203166002900480601f016020809104026020016040519081016040528092919081815260200182805460018160011615610100020316600290048015610a7f5780601f10610a5457610100808354040283529160200191610a7f565b820191906000526020600020905b815481529060010190602001808311610a6257829003601f168201915b5050505050908060030154908060040160009054906101000a900473ffffffffffffffffffffffffffffffffffffffff16908060040160149054906101000a900460ff16905086565b610ad06121ce565b600360008381526020019081526020016000206040518060c001604052908160008201548152602001600182018054600181600116156101000203166002900480601f016020809104026020016040519081016040528092919081815260200182805460018160011615610100020316600290048015610b915780601f10610b6657610100808354040283529160200191610b91565b820191906000526020600020905b815481529060010190602001808311610b7457829003601f168201915b50505050508152602001600282015481526020016003820160009054906101000a900473ffffffffffffffffffffffffffffffffffffffff1673ffffffffffffffffffffffffffffffffffffffff1673ffffffffffffffffffffffffffffffffffffffff1681526020016003820160149054906101000a900460ff161515151581526020016003820160159054906101000a900460ff161515151581525050905060008160600151905060008260000151118015610c555750600154826000015111155b610cc7576040517f08c379a00000000000000000000000000000000000000000000000000000000081526004018080602001828103825260058152602001807f4572726f7200000000000000000000000000000000000000000000000000000081525060200191505060405180910390fd5b8160400151341015610d41576040517f08c379a00000000000000000000000000000000000000000000000000000000081526004018080602001828103825260058152602001807f4572726f7200000000000000000000000000000000000000000000000000000081525060200191505060405180910390fd5b816080015115610db9576040517f08c379a00000000000000000000000000000000000000000000000000000000081526004018080602001828103825260058152602001807f4572726f7200000000000000000000000000000000000000000000000000000081525060200191505060405180910390fd5b3373ffffffffffffffffffffffffffffffffffffffff168173ffffffffffffffffffffffffffffffffffffffff161415610e5b576040517f08c379a00000000000000000000000000000000000000000000000000000000081526004018080602001828103825260058152602001807f4572726f7200000000000000000000000000000000000000000000000000000081525060200191505060405180910390fd5b33826060019073ffffffffffffffffffffffffffffffffffffffff16908173ffffffffffffffffffffffffffffffffffffffff1681525050600182608001901515908115158152505060008260a00190151590811515815250508160036000858152602001908152602001600020600082015181600001556020820151816001019080519060200190610eef92919061221e565b506040820151816002015560608201518160030160006101000a81548173ffffffffffffffffffffffffffffffffffffffff021916908373ffffffffffffffffffffffffffffffffffffffff16021790555060808201518160030160146101000a81548160ff02191690831515021790555060a08201518160030160156101000a81548160ff0219169083151502179055509050508073ffffffffffffffffffffffffffffffffffffffff166108fc349081150290604051600060405180830381858888f19350505050158015610fca573d6000803e3d6000fd5b507f79558d0d7d4d900e2f15c4cc0a665f1acdbe415e44de900ecdd1e5bf12b56f4e6001548360200151846040015133600160405180868152602001806020018581526020018473ffffffffffffffffffffffffffffffffffffffff1673ffffffffffffffffffffffffffffffffffffffff16815260200183151515158152602001828103825286818151815260200191508051906020019080838360005b83811015611084578082015181840152602081019050611069565b50505050905090810190601f1680156110b15780820380516001836020036101000a031916815260200191505b50965050505050505060405180910390a1505050565b6004602052806000526040600020600091509050806000015490806001018054600181600116156101000203166002900480601f0160208091040260200160405190810160405280929190818152602001828054600181600116156101000203166002900480156111795780601f1061114e57610100808354040283529160200191611179565b820191906000526020600020905b81548152906001019060200180831161115c57829003601f168201915b505050505090806002018054600181600116156101000203166002900480601f0160208091040260200160405190810160405280929190818152602001828054600181600116156101000203166002900480156112175780601f106111ec57610100808354040283529160200191611217565b820191906000526020600020905b8154815290600101906020018083116111fa57829003601f168201915b5050505050908060030154908060040160009054906101000a900473ffffffffffffffffffffffffffffffffffffffff16908060040160149054906101000a900460ff16905086565b6003602052806000526040600020600091509050806000015490806001018054600181600116156101000203166002900480601f0160208091040260200160405190810160405280929190818152602001828054600181600116156101000203166002900480156113125780601f106112e757610100808354040283529160200191611312565b820191906000526020600020905b8154815290600101906020018083116112f557829003601f168201915b5050505050908060020154908060030160009054906101000a900473ffffffffffffffffffffffffffffffffffffffff16908060030160149054906101000a900460ff16908060030160159054906101000a900460ff16905086565b61137661229e565b600660008381526020019081526020016000206040518061010001604052908160008201548152602001600182018054600181600116156101000203166002900480601f0160208091040260200160405190810160405280929190818152602001828054600181600116156101000203166002900480156114385780601f1061140d57610100808354040283529160200191611438565b820191906000526020600020905b81548152906001019060200180831161141b57829003601f168201915b505050505081526020016002820160009054906101000a900473ffffffffffffffffffffffffffffffffffffffff1673ffffffffffffffffffffffffffffffffffffffff1673ffffffffffffffffffffffffffffffffffffffff16815260200160038201548152602001600482015481526020016005820160009054906101000a900460ff161515151581526020016005820160019054906101000a900460ff161515151581526020016005820160029054906101000a900460ff1615151515815250509050600081604001519050600082600001511180156115215750600254826000015111155b611593576040517f08c379a00000000000000000000000000000000000000000000000000000000081526004018080602001828103825260058152602001807f4572726f7200000000000000000000000000000000000000000000000000000081525060200191505060405180910390fd5b816060015134101561160d576040517f08c379a00000000000000000000000000000000000000000000000000000000081526004018080602001828103825260058152602001807f4572726f7200000000000000000000000000000000000000000000000000000081525060200191505060405180910390fd5b8160c0015115611685576040517f08c379a00000000000000000000000000000000000000000000000000000000081526004018080602001828103825260058152602001807f4572726f7200000000000000000000000000000000000000000000000000000081525060200191505060405180910390fd5b8160a00151156116fd576040517f08c379a00000000000000000000000000000000000000000000000000000000081526004018080602001828103825260058152602001807f4572726f7200000000000000000000000000000000000000000000000000000081525060200191505060405180910390fd5b3373ffffffffffffffffffffffffffffffffffffffff168173ffffffffffffffffffffffffffffffffffffffff16141561179f576040517f08c379a00000000000000000000000000000000000000000000000000000000081526004018080602001828103825260058152602001807f4572726f7200000000000000000000000000000000000000000000000000000081525060200191505060405180910390fd5b33826040019073ffffffffffffffffffffffffffffffffffffffff16908173ffffffffffffffffffffffffffffffffffffffff168152505060018260c001901515908115158152505060018260a001901515908115158152505060008260e0019015159081151581525050816006600085815260200190815260200160002060008201518160000155602082015181600101908051906020019061184492919061221e565b5060408201518160020160006101000a81548173ffffffffffffffffffffffffffffffffffffffff021916908373ffffffffffffffffffffffffffffffffffffffff160217905550606082015181600301556080820151816004015560a08201518160050160006101000a81548160ff02191690831515021790555060c08201518160050160016101000a81548160ff02191690831515021790555060e08201518160050160026101000a81548160ff0219169083151502179055509050508073ffffffffffffffffffffffffffffffffffffffff166108fc349081150290604051600060405180830381858888f19350505050158015611949573d6000803e3d6000fd5b507fb8bb9c8459531555bee96c5c18394fdb8f7d323988aa700e810f4e75b5d9bb396002548360200151846060015133600160405180868152602001806020018581526020018473ffffffffffffffffffffffffffffffffffffffff1673ffffffffffffffffffffffffffffffffffffffff16815260200183151515158152602001828103825286818151815260200191508051906020019080838360005b83811015611a035780820151818401526020810190506119e8565b50505050905090810190601f168015611a305780820380516001836020036101000a031916815260200191505b50965050505050505060405180910390a1505050565b6006602052806000526040600020600091509050806000015490806001018054600181600116156101000203166002900480601f016020809104026020016040519081016040528092919081815260200182805460018160011615610100020316600290048015611af85780601f10611acd57610100808354040283529160200191611af8565b820191906000526020600020905b815481529060010190602001808311611adb57829003601f168201915b5050505050908060020160009054906101000a900473ffffffffffffffffffffffffffffffffffffffff16908060030154908060040154908060050160009054906101000a900460ff16908060050160019054906101000a900460ff16908060050160029054906101000a900460ff16905088565b60025481565b60015481565b6000825111611bf0576040517f08c379a00000000000000000000000000000000000000000000000000000000081526004018080602001828103825260058152602001807f4572726f7200000000000000000000000000000000000000000000000000000081525060200191505060405180910390fd5b60008111611c66576040517f08c379a00000000000000000000000000000000000000000000000000000000081526004018080602001828103825260058152602001807f4572726f7200000000000000000000000000000000000000000000000000000081525060200191505060405180910390fd5b6001600081548092919060010191905055506040518060c0016040528060015481526020018381526020018281526020013373ffffffffffffffffffffffffffffffffffffffff16815260200160001515815260200160001515815250600360006001548152602001908152602001600020600082015181600001556020820151816001019080519060200190611cfe92919061221e565b506040820151816002015560608201518160030160006101000a81548173ffffffffffffffffffffffffffffffffffffffff021916908373ffffffffffffffffffffffffffffffffffffffff16021790555060808201518160030160146101000a81548160ff02191690831515021790555060a08201518160030160156101000a81548160ff0219169083151502179055509050507fbc59c0c8165864dcceb377dd07d8f431d4303f8e501cb0a0374a10cc68d71836600154838333600060405180868152602001806020018581526020018473ffffffffffffffffffffffffffffffffffffffff1673ffffffffffffffffffffffffffffffffffffffff16815260200183151515158152602001828103825286818151815260200191508051906020019080838360005b83811015611e44578082015181840152602081019050611e29565b50505050905090810190601f168015611e715780820380516001836020036101000a031916815260200191505b50965050505050505060405180910390a15050565b6000835111611efd576040517f08c379a00000000000000000000000000000000000000000000000000000000081526004018080602001828103825260058152602001807f4572726f7200000000000000000000000000000000000000000000000000000081525060200191505060405180910390fd5b60008211611f73576040517f08c379a00000000000000000000000000000000000000000000000000000000081526004018080602001828103825260058152602001807f4572726f7200000000000000000000000000000000000000000000000000000081525060200191505060405180910390fd5b60026000815480929190600101919050555060405180610100016040528060025481526020018481526020013373ffffffffffffffffffffffffffffffffffffffff1681526020018381526020018281526020016001151581526020016000151581526020016000151581525060066000600254815260200190815260200160002060008201518160000155602082015181600101908051906020019061201b92919061221e565b5060408201518160020160006101000a81548173ffffffffffffffffffffffffffffffffffffffff021916908373ffffffffffffffffffffffffffffffffffffffff160217905550606082015181600301556080820151816004015560a08201518160050160006101000a81548160ff02191690831515021790555060c08201518160050160016101000a81548160ff02191690831515021790555060e08201518160050160026101000a81548160ff0219169083151502179055509050507ff996a37debe4f145eac7f95ec785dcd059a5c3a642555a14adfa9d9308ec16b0600254848433600060405180868152602001806020018581526020018473ffffffffffffffffffffffffffffffffffffffff1673ffffffffffffffffffffffffffffffffffffffff16815260200183151515158152602001828103825286818151815260200191508051906020019080838360005b8381101561218b578082015181840152602081019050612170565b50505050905090810190601f1680156121b85780820380516001836020036101000a031916815260200191505b50965050505050505060405180910390a1505050565b6040518060c00160405280600081526020016060815260200160008152602001600073ffffffffffffffffffffffffffffffffffffffff1681526020016000151581526020016000151581525090565b828054600181600116156101000203166002900490600052602060002090601f016020900481019282601f1061225f57805160ff191683800117855561228d565b8280016001018555821561228d579182015b8281111561228c578251825591602001919060010190612271565b5b50905061229a91906122ff565b5090565b6040518061010001604052806000815260200160608152602001600073ffffffffffffffffffffffffffffffffffffffff16815260200160008152602001600081526020016000151581526020016000151581526020016000151581525090565b61232191905b8082111561231d576000816000905550600101612305565b5090565b9056fea165627a7a723058207f56bfc948f980126d7242ddb9f75dbc082b07f0964706ca596aa14d53f8950a0029",
  "source": "pragma solidity ^0.5.0;\r\n/*\r\n1. We are using underscore prefix for all local variables.\r\n2. State variables do not.\r\n3.\r\n4.\r\n*/\r\ncontract Marketplace {\r\n    string public name;\r\n    uint public productCount = 0;\r\n    uint public policyCount = 0;\r\n\r\n    // Mapping by id's (indexing the arrays).\r\n    mapping(uint => Product) public products;\r\n    mapping(uint => Agent) public agents;\r\n    mapping(uint => User) public users;\r\n    mapping(uint => Policy) public policies;\r\n\r\n    \r\n\r\n    // Describe the Binder\r\n    struct Binder {\r\n        uint id;\r\n        string name;\r\n        uint price;\r\n        address payable owner;\r\n        bool available;\r\n    }\r\n\r\n    // Describe the Product\r\n    struct Product {\r\n        uint id;\r\n        string name;\r\n        uint price;\r\n        address payable owner;\r\n        bool purchased;\r\n        bool available;\r\n    }\r\n\r\n    // Describe the Agent\r\n    struct Agent {\r\n        uint id;\r\n        string name;\r\n        string title;\r\n        uint commission;\r\n        address payable owner;\r\n        bool commissionPaid;\r\n    }\r\n\r\n    // Describe the User. The user in this case\r\n    // is the potential insured or buyer of the\r\n    // product. The end user.\r\n    struct User {\r\n        uint id;\r\n        string name;\r\n        string title;\r\n        uint commission;\r\n        address payable owner;\r\n        bool commissionPaid;\r\n    }\r\n\r\n    event PolicyCreated(\r\n        uint id,\r\n        string name,\r\n        uint price,\r\n        address payable owner,\r\n        bool purchased\r\n    );\r\n\r\n\r\n    event ProductCreated(\r\n        uint id,\r\n        string name,\r\n        uint price,\r\n        address payable owner,\r\n        bool purchased\r\n    );\r\n\r\n    event ProductPurchased(\r\n        uint id,\r\n        string name,\r\n        uint price,\r\n        address payable owner,\r\n        bool purchased\r\n    );\r\n\r\n    event PolicyPurchased(\r\n        uint id,\r\n        string name,\r\n        uint price,\r\n        address payable owner,\r\n        bool purchased\r\n    );\r\n\r\n    // Describe the Policy\r\n    struct Policy {\r\n        uint id;\r\n        string policyNumber;\r\n        address payable owner;\r\n        uint price;\r\n        uint commission;\r\n        bool active;\r\n        bool purchased;\r\n        bool renewable;\r\n    }\r\n\r\n    constructor() public {\r\n        name = \"InsureNET Marketplace\";\r\n        //products = [];\r\n        //agents = [];\r\n        //users = [];\r\n    }\r\n\r\n    // Create a Policy\r\n    function createPolicy(string memory _policyNumber, uint _price, uint _commission) public {\r\n        // Validation\r\n        // Require a valid name\r\n        require(bytes(_policyNumber).length > 0, \"Error\");\r\n        require(_price > 0, \"Error\");\r\n\r\n        policyCount ++;\r\n\r\n        policies[policyCount] = Policy(policyCount, _policyNumber, msg.sender, _price, _commission, true, false, false);\r\n\r\n        emit PolicyCreated(policyCount, _policyNumber, _price, msg.sender, false);\r\n    }\r\n\r\n    function createProduct(string memory _name, uint _price) public {\r\n        // Require a valid name\r\n        require(bytes(_name).length > 0, \"Error\");\r\n        // Require a valid price\r\n        require(_price > 0, \"Error\");\r\n        // Increment product count\r\n        productCount ++;\r\n        // Create the product\r\n        products[productCount] = Product(productCount, _name, _price, msg.sender, false, false);\r\n        // Trigger an event\r\n        emit ProductCreated(productCount, _name, _price, msg.sender, false);\r\n    }\r\n\r\n    function purchasePolicy(uint _id) public payable {\r\n        // Fetch the product\r\n        // Create a copy in memory of a new Product (from struct above).\r\n        // This is not the actual product from blockchain. Remember were\r\n        // following _local naming convention.\r\n        Policy memory _policy = policies[_id];\r\n        // Fetch the owner\r\n        address payable _seller = _policy.owner;\r\n        // Make sure the product has a valid id\r\n        require(_policy.id > 0 && _policy.id <= policyCount, \"Error\");\r\n        // Require that there is enough Ether in the transaction\r\n        require(msg.value >= _policy.price, \"Error\");\r\n        // Require that the product has not been purchased already\r\n        require(!_policy.purchased, \"Error\");\r\n        // Require that the is active\r\n        require(!_policy.active, \"Error\");\r\n        // Require that the buyer is not the seller\r\n        require(_seller != msg.sender, \"Error\");\r\n        // Transfer ownership to the buyer\r\n        _policy.owner = msg.sender;\r\n        // Mark as purchased.\r\n        // ?? Is there anything else we can add here?\r\n        // Are there limitations, and what?\r\n        _policy.purchased = true;\r\n        _policy.active = true;\r\n        _policy.renewable = false; // set this default for testing\r\n\r\n        // Update the product. Put it back into the mapping.\r\n        policies[_id] = _policy;\r\n        // Pay the seller by sending them Ether\r\n        // The amount of Ethereum is the msg.value\r\n        address(_seller).transfer(msg.value);\r\n        // Trigger an event\r\n        emit PolicyPurchased(policyCount, _policy.policyNumber, _policy.price, msg.sender, true);\r\n    }\r\n\r\n    function purchaseProduct(uint _id) public payable {\r\n        // Fetch the product\r\n        // Create a copy in memory of a new Product (from struct above).\r\n        // This is not the actual product from blockchain. Remember were\r\n        // following _local naming convention.\r\n        Product memory _product = products[_id];\r\n        // Fetch the owner\r\n        address payable _seller = _product.owner;\r\n        // Make sure the product has a valid id\r\n        require(_product.id > 0 && _product.id <= productCount, \"Error\");\r\n        // Require that there is enough Ether in the transaction\r\n        // to cover the product price.\r\n        require(msg.value >= _product.price, \"Error\");\r\n        // Require that the product has not been purchased already\r\n        require(!_product.purchased, \"Error\");\r\n        // Require that the buyer is not the seller\r\n        require(_seller != msg.sender, \"Error\");\r\n\r\n        // Transfer ownership to the buyer\r\n        _product.owner = msg.sender;\r\n        // Mark as purchased.\r\n        // ?? Is there anything else we can add here?\r\n        // Are there limitations, and what?\r\n        _product.purchased = true;\r\n        _product.available = false;\r\n\r\n        // Update the product. Put it back into the mapping.\r\n        products[_id] = _product;\r\n        // Pay the seller by sending them Ether\r\n        // The amount of Ethereum is the msg.value\r\n        address(_seller).transfer(msg.value);\r\n        // Trigger an event\r\n        emit ProductPurchased(productCount, _product.name, _product.price, msg.sender, true);\r\n    }\r\n}\r\n",
  "sourcePath": "C:/Users/jaxco/source/repos/BlockChain/Etherium/Marketplace/marketplace/src/contracts/Marketplace.sol",
  "compiler": {
    "name": "solc",
    "version": "0.5.8+commit.23d335f2.Emscripten.clang"
  },
  "schemaVersion": "3.0.16",
  "updatedAt": "2020-01-12T18:25:44.944Z",
  "devdoc": {
    "methods": {}
  },
  "userdoc": {
    "methods": {}
  }
}